:100000000C9415030C94F4270C9432030C943203D3
:100010000C9432030C9432030C9432030C9432038C
:100020000C9432030C9432030C941B2D0C94EE2D83
:100030000C946F260C9432030C9432030C9432030C
:100040000C9432030C9432030C9432030C9432035C
:100050000C9432030C9414270C9432030C94320346
:100060000C9432030C9432030C9432030C9432033C
:100070000C9432030C9432030C9432030C9432032C
:100080000C9432030C9432030C9432030C9432031C
:100090000C9432030C9432030C9432030C9432030C
:1000A0000C9432030C9432030C94320335421E003C
:1000B0001F0020002100220021522B0014001A00F2
:1000C0000800150017002F00294204001600070041
:1000D00009000A003143E1001D001B000600190061
:1000E00005003800E00057005600E2002A002C000E
:1000F000E3002D4227002600250024002300215282
:100100002E00130012000C0018001C0030003400F8
:1001100033000F000E000D000B004D43E5003800CA
:1001200037003600100011004A004F005200510005
:1001300050002A002C00280001003A003B003C003F
:100140003D003E00010001001E021F022F0230028E
:10015000310201000100200221022F003000350091
:1001600001000100220223022602270235020100BB
:100170000100010001000100010001000100000078
:1001800043004200410040003F00010000005600D3
:10019000610060005F0054000100000057005E0035
:1001A0005D005C0055000100000058005B005A0033
:1001B0005900000001000000580063006200620066
:1001C0000100010001000100010001000100010027
:1001D000010000002900CD000000D900000001004E
:1001E0000000CF00CE00D000DA00000001000000C7
:1001F000AC00AE00AB0000000000010000000000F9
:10020000000000004C00D100D200010001000100FC
:100210000100010001000100000000000000520088
:10022000000000000100000000004F0051005000DD
:1002300000000000000000000000000000000000BE
:1002400001000000000000000000000001000100AB
:1002500000003A003B003C003D003E0023780000D7
:10026000007C2B78207821782478000000000000A2
:10027000000000000000000001000000000000007D
:10028000000000000000000000000000000000006E
:100290000000000000000000430042004100400058
:1002A0003F00267800000000000027782878257895
:1002B000000000000000000000000000000001003D
:1002C000000000000000000000000000000000002E
:1002D0000000000000000000000000001E0F0500EC
:1002E000047F3F1F643214643214783C1E1E140ACB
:1002F000052223252628292A2C2D2F303233353666
:10030000383A3B3D3E4042434547494A4C4E5051A6
:10031000535557595A5C5E6062646668696B6D6FCD
:1003200071737577797B7D7F81838587898A8C8ED0
:1003300090929496989A9C9E9FA1A3A5A7A8AAACD8
:10034000AEAFB1B3B4B6B8B9BBBCBEBFC1C2C3C512
:10035000C6C7C9CACBCCCDCED0D1D2D2D3D4D5D6B4
:10036000D7D7D8D9D9DADADBDBDBDCDCDCDCDCDDE7
:10037000DDDDDDDCDCDCDCDCDBDBDBDADAD9D9D8CB
:10038000D7D7D6D5D4D3D2D2D1D0CECDCCCBCAC963
:10039000C7C6C5C3C2C1BFBEBCBBB9B8B6B4B3B192
:1003A000AFAEACAAA8A7A5A3A19F9E9C9A9896942D
:1003B00092908E8C8A89878583817F7D7B79777502
:1003C00073716F6D6B6968666462605E5C5A5957E1
:1003D000555351504E4C4A4947454342403E3D3BA0
:1003E0003A3836353332302F2D2C2A29282625232A
:1003F00022FFAA7F55400001010101010101010115
:1004000002020202020202020203030303030303C5
:100410000304040404040404050505050506060692
:100420000606070707070708080808090909090A4F
:100430000A0A0B0B0B0C0C0C0D0D0D0E0E0E0F0FF4
:100440000F10101111111212131314141515161682
:100450001717181819191A1A1B1B1C1D1D1E1E1FF1
:100460002020212222232424252626272829292A40
:100470002B2C2D2D2E2F3031323233343536373868
:10048000393A3B3C3D3E3F40414243444546474864
:10049000494A4C4D4E4F50515354555658595A5B3A
:1004A0005D5E5F616264656668696B6C6D6F7072DA
:1004B000737577787A7B7D7E8082838587888A8C46
:1004C0008E8F91939596989A9C9EA0A2A3A5A7A97A
:1004D000ABADAFB1B3B5B7BABCBEC0C2C4C6C9CB71
:1004E000CDCFD1D4D6D8DBDDDFE2E4E7E9EBEEF027
:1004F000F3F5F8FAFDFF0C035200650064006F008D
:10050000780000001403460061006C006200610086
:100510007400650063006800000004030904090218
:100520003B00020100A0FA090400000103010100E0
:10053000092111010001224400070581030800017F
:10054000090401000103000000092111010001223A
:100550007B00070582032000011201000200000059
:1005600008444D445200010102000105010902A1A5
:100570000185020901A100050919012908150025B5
:1005800001950875018102050109300931158125A0
:100590007F95027508810609381581257F950175BB
:1005A000088106050C0A38021581257F950175081A
:1005B0008106C0C005010980A101850319012AB780
:1005C00000150126B700950175108100C0050C09C2
:1005D00001A101850419012AA002150126A0029596
:1005E0000175108100C005010906A101050719E088
:1005F00029E7150025019508750181029501750807
:1006000081010507190029FF150026FF00950675D1
:1006100008810005081901290515002501950575B2
:10062000019102950175039101C011241FBECFEF06
:10063000DAE0DEBFCDBF12E0A0E0B1E0E4E4F3E633
:1006400002C005900D92A430B107D9F723E0A4E0D1
:10065000B2E001C01D92A53BB207E1F70E94291646
:100660000C94A0310C9400008430B8F46A30A8F4E3
:10067000473098F4E42FF0E097E0699FE00DF11D1A
:10068000112496E4899FE00DF11D1124EE0FFF1F48
:10069000E455FF4F85919491089581E090E008958D
:1006A0000E943403089581E008950E945303089541
:1006B00081E008950E94530308950E945A0308950B
:1006C00008950E9460030895A6E0B0E0EAE6F3E032
:1006D0000C944C3049835A839E8330910B0289815C
:1006E0009A8131111AC03E81332399F0222389F077
:1006F0000E948709182F682F89819A810E946309B7
:1007000069817A81812F0E9469102696E3E00C941A
:1007100068300E947509182FF3CF0E9487096981FC
:100720007A81F1CFFC01262F408151816281738152
:10073000848195810E9464030895CF93DF93EC0137
:1007400061E00E949203BE010E945503DF91CF91A8
:100750000895CF93DF93EC0160E00E949203BE0105
:100760000E946103DF91CF91089581E008950E9476
:10077000B5030895CF93C82F0E9439088C2F0E948B
:10078000B7032FEF84E39CE0215080409040E1F7D5
:1007900000C00000CF91089581E00E94BA030E943A
:1007A0003A27089580E00E94BA030E944B270895DB
:1007B0000F931F93CF93DF938C0161E00E9492030C
:1007C000EC01F801858181110E94721EB801CE01F1
:1007D0000E945D03811106C080E0DF91CF911F91DF
:1007E0000F910895B801CE010E94CE248823A1F371
:1007F000B801CE010E94D720882371F3B801CE0141
:100800000E94AD20882341F3B801CE010E94911EC1
:10081000882311F3F8018581882361F0C330FCE758
:10082000DF07E9F058F4C115ECE7DE07A9F0C130A5
:10083000DC47B9F0C8010E945803CFCFCB358CE715
:10084000D807A9F0CC35ECE7DE0771F0CA35DC47F4
:1008500089F70E949F0DEECF0E94CC03BDCF0E946E
:10086000A70D0E94D203B8CF0E94950DE3CF0E943E
:10087000A30DE0CF0E944C260E945A0408950E94C6
:100880005E040E945126089581E008950895CF9353
:10089000DF93D82F0E944404C82F882319F08D2F8E
:1008A0000E9446048C2FDF91CF91089508950E94F5
:1008B0004704089580E00E94570408950E941E2571
:1008C0000E9457040895CF930E941E25C82F80913F
:1008D00006028C1779F0C09306020E94DD26609311
:1008E0000702709308028093090290930A028C2FEA
:1008F0000E945704CF910895ADE0B0E0E2E8F4E043
:100900000C944D30488759876A877B878C879D87F1
:1009100091110E94D50C1F8286E0FE013896DE01FF
:10092000119601900D928A95E1F78D8181110DC08C
:1009300029813A814B815C816D817E818F810E940A
:100940001D0C2D96E2E00C946930CE0101960E94B8
:100950009D038111EDCFF5CFFC012481213021F4DD
:10096000808191810E94B9090895662329F00E942F
:100970005D220E94332308950E94B722FACFCF93BD
:100980008823D1F0C82F8238C9F40E94322581FD16
:1009900013C089E30E94E2250E94440D2FEF87EEE9
:1009A00093E0215080409040E1F700C0000089E3CF
:1009B0000E94EA250E94440DCF9108958338A1F446
:1009C0000E94322580FDF8CF83E50E94E2250E9437
:1009D000440D2FEF81EE94E0215080409040E1F7EC
:1009E00000C0000083E5E4CF8438A1F40E943225E2
:1009F00082FDE2CF87E40E94E2250E94440D2FEFA2
:100A000081EE94E0215080409040E1F700C000006A
:100A100087E4CECF8CEF8C0F813A98F48C2F0E9414
:100A2000D71F8111C9CF8C2F0E94A725882329F0B9
:100A30008C2F0E94EA250E94440D8C2F0E94E225F3
:100A4000B9CF80E28C0F883048F4C77081E001C0D4
:100A5000880FCA95EAF70E94B60CACCFEBE5EC0F15
:100A6000E33040F4F0E0E557FE4F808190E00E94D3
:100A70004E25A2CFE8E5EC0FEB3150F4F0E0EE0F9D
:100A8000FF1FEB5AFE4F808191810E94732594CF06
:100A900083E38C0F833108F08FCF61E08C2F0E94AD
:100AA000B5048ACF882309F456C0823879F40E94AD
:100AB000322581FF50C089E30E94E2250E94440D47
:100AC00089E30E94EA250E94440D0895833859F471
:100AD0000E94322580FF3FC083E50E94E2250E94EC
:100AE000440D83E5EECF843859F40E94322582FF0D
:100AF00032C087E40E94E2250E94440D87E4E1CFE2
:100B00009CEF980F913AE8F290E2980F983050F4E9
:100B1000877091E001C0990F8A95EAF7892F0E94AA
:100B2000BC0CD1CF9BE5980F933028F490E080E087
:100B30000E944E25089598E5980F9B3128F490E087
:100B400080E00E947325089593E3980F933118F481
:100B500060E00E94B50408951F93CF93DF93182F90
:100B6000EB010E94BF04209739F4812F0E945205A7
:100B7000DF91CF911F9108958FE99FE00197F1F7E1
:100B800000C000002197EFCF70E060E0893311F4DE
:100B900060E570E00E94AC050895882321F00E9472
:100BA000B60C0E94440D0895882321F00E94BC0CCD
:100BB0000E94440D0895B0E0A0E0E1EEF5E00C9451
:100BC00047306C01D62FC72FFC0115810681029595
:100BD0000F700E94AC0CE82E8823F9F0E12E11234F
:100BE000E1F08C2F807F803461F080E28D0F8830BF
:100BF00070F18C2F807E803221F4D23040F10023BE
:100C000031F18091570382FF22C082E00E94690D7A
:100C10000E94AC0C91E0E82EE926FC2EF2949FE0B5
:100C2000F922FBE0FF1508F443C0EF2DF0E0E55E8C
:100C3000F94F0C9406302906290670067006D50671
:100C4000F60658065806FB066F0780078007E12C5A
:100C5000E4CF0C2F0F70C07F11F00295007F11239D
:100C600099F0002359F080E28D0F883010F0D111F7
:100C700007C0802F0E94B60C0E94440D8D2F51C0DA
:100C8000802F0E94C70CF8CF8D2F0E9452050023A1
:100C900079F080E28D0F883010F0D11104C0802FE0
:100CA0000E94BC0C03C0802F0E94CD0C0E94440DFA
:100CB000EE2089F00E94A80C80FD0DC0F60115827F
:100CC0000E94A20C0E94C108C6010E9400080E9456
:100CD000A20C0E94D108CDB7DEB7E8E00C946330D7
:100CE0002C2F2F70F22EC07FC03219F0F29480EFBB
:100CF000F822DD2341F0D130D1F1112309F444C0B1
:100D00000023F1F0BBCF8091570382FD15C0112362
:100D100059F0FF2029F08F2D0E94B60C0E94440D3F
:100D200080E00E94BF04C4CF80E00E945205FF20F3
:100D300009F4BECF8F2DB4CF112369F0011104C087
:100D40008F2D0E94CD05B4CF013009F0B1CF8F2D8A
:100D50000E94EC0CADCF0111ABCF8F2D0E94D405BA
:100D60008F2D0E94F80C8F2D0E94DC0CA1CF112337
:100D700021F0063008F09CCFE3CF053008F098CF83
:100D80008F2D0E94D40594CF0023D1F3D93349F499
:100D90008FEF97EEE3E081509040E040E1F700C034
:100DA00000008D2F0E94520583CF8C2F869586954B
:100DB000837041F0813081F088EF8F0D843008F02E
:100DC00077CF46C08D2F9C2F9370111102C080E009
:100DD00090E00E944E256CCF8D2F9C2F93701111A7
:100DE00002C080E090E00E94732562CF612F8D2FBA
:100DF0000E94B5045DCF8C2F8370C1F5111128C0FE
:100E00004D2F429546954770440F440F2D2F2F705C
:100E100030E0042E02C0220F331F0A94E2F790E064
:100E200080E0D4FF09C08FE090E002C0880F991FD6
:100E30004A95E2F780959095822B932BC695C6959F
:100E4000C370C23069F078F4C13039F00E94910863
:100E50000E941E250E9457042BCF0E948808F8CFBD
:100E60000E949A08F5CF0E948508F2CF869511233B
:100E700011F08C2F8170882359F34D2F42954695A0
:100E80004770440F440F2D2F2F7030E0042E02C006
:100E9000220F331F0A94E2F790E080E0D4FF09C0EC
:100EA0008FE090E002C0880F991F4A95E2F7809585
:100EB0009095822B932BC695C695C370C23049F08E
:100EC00058F4C13019F00E94FC08C2CF0E94F30808
:100ED000BFCF0E940509BCCF0E94A908B9CFCF702F
:100EE000112339F08C2F0E94C1088D2F0E94CD054F
:100EF000AFCF8D2F0E94D4058C2F0E94D108A8CF90
:100F0000D23F61F170F4D03FD9F0D13F91F011237D
:100F100009F44AC0002309F444C08D2F0E94BF0485
:100F20004BCFD33F11F1D43F91F78091570382FD0E
:100F300026C08C2F8F711123A9F00E94C1083CCFCD
:100F4000112341F0053008F037CF8C2F8F710E94AC
:100F5000E30832CF063008F02FCFF7CF8C2F8F71F8
:100F6000112359F30E94D10827CF112329F08C2F88
:100F70008F710E94B50820CF0E94B0081DCF1123A9
:100F800031F063E08C2F8F710E944B0D15CF81E003
:100F90000E94690D023008F40FCF82E00E94690DB3
:100FA0000BCF8C2F8F71C9CF002379F0D93349F43F
:100FB000FFEF27EE83E0F15020408040E1F700C0D2
:100FC00000008D2F0E945205F7CE8C2F8F71CACF53
:100FD0000F931F93CF93DF93EC01688179818D810B
:100FE0000E94C4098C010E940E090E948408B80165
:100FF000CE010E94DB05DF91CF911F910F910895E3
:10100000CF93DF93FC012481222399F0EC010E940D
:10101000D803811111C00E94AC0C882351F08D813E
:10102000882339F08091570382FF03C082E00E9439
:10103000690DDF91CF910895CE010E94E807CE019E
:101040000E94A903F6CF90E080E00E944E2590E038
:1010500080E00E9473250E94D50C0E94440D0E94DE
:1010600052230E94332308950E94F2250E942308F0
:1010700008950E94C40C0E943408089592959F70B0
:10108000963089F050F49250923058F4803F19F025
:1010900030F4883E30F481E008959A50F5CF843FD3
:1010A000D1F380E00895883EB0F3813FD1F7F3CFCC
:1010B000FC012481222339F0808191810E94B909A9
:1010C0000E943E08089580E00895A6E0B0E0EBE6B7
:1010D000F8E00C944D302696E2E00C946930A7E0DD
:1010E000B0E0E5E7F8E00C944D302796E2E00C9490
:1010F000693008950E94790808950E947A089093B3
:10110000330280933202089508950E947D08089565
:101110002091320230913302822B932B0E947D0862
:1011200008952091320230913302822393230E944A
:101130007D0808952091320230913302822793274F
:101140000E947D0808950E94790808950E94A308CE
:1011500008950E94A608909331028093300208956A
:1011600090E080E00E94A908089521E030E0A90104
:1011700002C0440F551F8A95E2F7CA010E94A908D0
:10118000089521E030E002C0220F331F8A95E2F774
:101190008091300290913102822B932B0E94A908FA
:1011A000089521E030E002C0220F331F8A95E2F754
:1011B00020953095809130029091310282239323C3
:1011C0000E94A908089521E030E002C0220F331FD9
:1011D0008A95E2F78091300290913102822793271D
:1011E0000E94A90808952091300230913102822B8B
:1011F000932B0E94A908089520913002309131026A
:10120000822393230E94A9080895209130023091EF
:101210003102822793270E94A90808950895262F56
:10122000277091E001C0990F2A95EAF723E076959F
:1012300067952A95E1F7660F771F660F771FFA010A
:10124000E60FF71F50E040E0682F70E08191DF016A
:1012500011979B01042E02C0369527950A94E2F758
:10126000217021952827292328272C934F5F5F4F32
:101270004430510559F70895A82FA77023E096959B
:1012800087952A95E1F7880F991F880F991FFB0111
:10129000E80FF91F50E040E080E0219130E00A2E95
:1012A00002C0369527950A94E2F721703327042E61
:1012B00001C0220F0A94EAF7822B4F5F5F4F443040
:1012C000510559F70895282F9A3070F4873060F44B
:1012D000862F622F70E027E0929F600D711D112410
:1012E0004CE052E00E940F0908959A3070F4873064
:1012F00060F4292F90E06CE072E037E0239F800DCE
:10130000911D11240E943C09089580E00895B0E0E9
:10131000A0E0EDE8F9E00C9446307C010091300249
:10132000109131028091320290913302082B192BD7
:10133000CFE0D0E0CC24C394D12CBC2EC6010C2E1F
:1013400002C0880F991F0A94E2F780239123892B0A
:1013500049F4219790F7B12C8B2DCDB7DEB7E9E09A
:101360000C946230B7018C2F0E947510019789F39D
:10137000F3CFCF93DF93EC010E948709BE010E9457
:101380007510DF91CF9108951F93CF93DF93EB01F9
:1013900090910B02992339F0CB010E94B909DF919A
:1013A000CF911F910895882369F0CB010E9487098E
:1013B000182F682FCE010E946309BE01812F0E9461
:1013C0007510EDCFCB010E947509182FF6CF1F9332
:1013D000CF93DF93C091340217E0809135028C13D4
:1013E00004C0DF91CF911F910895D0E01C9FF001C0
:1013F0001D9FF00D1124EA5CFD4F20813181428157
:1014000053816481758186810E946F082196C7701F
:10141000E4CF20916E0230916F02409170025091A2
:1014200071026091720270917302809174020E9445
:101430006F080895CF93DF9380917402807F09F045
:101440004DC080917302882309F448C0E0913402B2
:1014500050913502C0916F02D0916E02609170027E
:101460007091710247E05E17C9F18E2F90E0E49F02
:10147000F0011124EA5CFD4F2481222391F1489F61
:10148000F001499FF00D1124DF01AA5CBD4F1196B8
:101490002C9111972C1325C02C912D1322C0159639
:1014A0002C91159721111DC012962D913C91261B50
:1014B000370B283C3105A8F4809174028F7080614D
:1014C00080937402E45CFD4F80818F708061808323
:1014D0008EE692E00E9400080E94E709DF91CF911A
:1014E0000895FC013196E770BECF482F2091340259
:1014F0009091350257E0291302C080E0089530E052
:10150000529FF001539FF00D1124EA5CFD4F818141
:10151000681306C08081481303C085818111EECF16
:101520002F5F3F4F2770E7CFA4E1B0E0EAE9FAE090
:101530000C9443308C0186E0F801DE011F96019087
:101540000D928A95E1F7F8018481E5809EE6A92E47
:1015500092E0B92E9091720291111FC08823D1F0B0
:10156000EE20A9F0C8010E945808F82E882379F0CF
:1015700087E0F801D50101900D928A95E1F7C50148
:101580000E94AC040E941A0A0E94090A5FC0C801A6
:101590000E940008FF24F39459C0C080D18082804B
:1015A0009380F09073022091700230917102A40137
:1015B000421B530BFF2009F4F8C0483C510508F0CA
:1015C000A6C0882309F442C090916F0280917402F2
:1015D000282F207F09F05BC0D91216C090916E02AF
:1015E000C91212C0E1104DC08F70806180937402E7
:1015F0000E94090A8EE692E00E940008809174021F
:10160000F8018683F12C22C0E1103BC06D2D8C2D9A
:101610000E94750A6D2D8C2D0E94750AE82E81118D
:10162000F1CFCF86D88A8F8598890E94B909292F52
:1016300022952F70243078F49F702230A0F09923E7
:10164000B1F0F8019681907F91F4FE2C8F2D649675
:10165000ECE00C945F302A50223068F0C8010E9400
:101660000008EF2CF2CF992311F0882371F3805EEC
:101670008830A0F7EACF803F40F3815F833070F776
:10168000E4CF80917402816080937402BBCFD91241
:1016900013C090916E02C9120FC0E1100DC0868375
:1016A000C8010E94000887E0F801AEE6B2E00190B0
:1016B0000D928A95E1F768CFC8010E9458088823E7
:1016C00009F465CFEE2009F462CF80917402803274
:1016D00088F020916E0230916F02398728879B86AF
:1016E0008A86909172029C871D868E87CE0108960D
:1016F0000E94000887E0F801AEE6B2E001900D928A
:101700008A95E1F70E941A0A0E94090A43CF909134
:101710007402292F207FA1F4682D9A8A898AA60154
:101720007A899E2D0E9465088EE692E00E9400084C
:1017300087E0F50111928A95E9F70E94090A62CFC4
:10174000882309F483CF80916F028D1110C080919E
:101750006E02C8120CC0E1100AC09683C8010E9434
:10176000000887E0F50111928A95E9F76FCFC8016B
:101770000E945808882309F40ACFEE2009F407CF05
:1017800080917402803208F4B5CF20916E023091BE
:101790006F023A8329839C828B82909172029D838F
:1017A0001E828F83CE010196A3CF483C5105B8F528
:1017B000882309F4EFCEFE2CEE2009F4E8CE8091C8
:1017C0006F028D111EC080916E02C8121AC08091E6
:1017D000740280FD0DC0982F907F51F08683903F5A
:1017E00009F45ECF982F907F905F8F70892B57CF31
:1017F00087E0F801AEE6B2E001900D928A95E1F73C
:1018000025CFC8010E945808811174CF80917402BD
:10181000816080937402C8010E94000817CF682D70
:101820009A8A898AA6017A899E2D0E94650887E096
:10183000F50111928A95E9F7A7CEAEE0B0E0E3E2B8
:10184000FCE00C944C30288739874A875B876C878B
:101850007D878E87CE0108960E94940A8823B1F175
:101860006C85662341F0288539854A855B857D85B1
:101870008E850E946F0817E08091340290913502A6
:10188000891709F45BC0819FC00111248A5C9D4FB8
:101890000E94940A882309F451C0E09134021E9FEB
:1018A000F0011124EA5CFD4F208131814281538196
:1018B0006481758186810E946F088091340290E076
:1018C00001968770992780933402D6CF87E0FE0176
:1018D0003896DE01119601900D928A95E1F78C857C
:1018E000882349F22091350230E0C90101968770C2
:1018F0009927409134024817190699F097E0929F72
:10190000D001939FB00D1124AA5CBD4FFE0131960A
:1019100001900D929A95E1F7809335020E94E709B4
:10192000AACF0E943908109235021092340287E043
:10193000EEE6F2E0DF011D928A95E9F72E96E3E0EC
:101940000C94683080917D028695869586950895E1
:1019500080917D028770089590917D02977081E05B
:1019600009F480E008958091890208959091890298
:10197000892B809389020895982F909580918902F0
:101980008923809389020895109289020895909185
:101990008802892B809388020895982F90958091D2
:1019A00088028923809388020895109288020895FE
:1019B00008950E94D80C089590917E02292F282323
:1019C00031F08095892380937E020E94D90C08957E
:1019D00008950E94E80C089590917F02292F2823F2
:1019E000281729F0982B90937F020E94E90C089504
:1019F00090917F02292F282331F0809589238093AD
:101A00007F020E94E90C089580917F02882329F0CB
:101A100010927F0280E00E94E90C08950F931F93BB
:101A2000CF93DF930091040110910501C0918902C9
:101A300080918802C82B80917F02882331F0C82BC7
:101A40000E94982581110E94040DF801C083C09165
:101A50000401D091050148E050E065E772E0CE0155
:101A60000E941331892B59F088E0FE01A5E7B2E00E
:101A700001900D928A95E1F7CE010E943525DF9104
:101A8000CF911F910F9108950E940E0D0895089512
:101A90000E94470D08959091570392FF11C098E05E
:101AA000899F90011124622B60937D020E94C108DE
:101AB00080917D028695869586950E94480D0895B1
:101AC0000E94C108089510927D0280E00E94480D96
:101AD000089590917D028095892380937D02282F1F
:101AE000277069F4891759F09091570392FF07C046
:101AF0008695869586950E94D1080E94630D08956B
:101B00009091570392FB222720F9281769F080FB58
:101B100092F99093570380915603909157030E9436
:101B2000C80D82E00E94690D08958091570382FBE1
:101B3000882780F991E089270E94800D089581E02F
:101B40000E94800D089580E00E94800D08956FEF3F
:101B50007FEF90E080E00E946B31089590E080E09C
:101B60000E94373121E0853E9E4F09F020E0822F10
:101B7000089582E090E00E942931089583E090E08A
:101B80000E942931089584E090E00E943731089541
:101B9000BC0184E090E00E946B310895AB01BC0170
:101BA0008FE090E00E945F310895AB01BC0183E1BA
:101BB00090E00E945F31089560E070E0CB010E94E8
:101BC000D50D089560E070E0CB010E94CE0D0E941B
:101BD000DC0D0895A8E0B0E0E0EFFDE00C944D309E
:101BE00065EE7EEF90E080E00E946B3160E082E085
:101BF00090E00E944D3181E090E090933302809319
:101C0000320261E083E090E00E944D3160E074E1D7
:101C100084E090E00E946B3160E086E090E00E94FA
:101C20004D3160E087E090E00E944D3140E050E0AF
:101C3000BA0188E090E00E945F3160E083E290E0CA
:101C40000E944D3160E08CE090E00E944D3160E0F8
:101C50008DE090E00E944D3119821A821B821C8215
:101C60001D821E821F82188648E050E067E170E006
:101C7000CE0101960E943D3140E050E0BA018FE173
:101C800090E00E945F310E94E20D2896E2E00C9401
:101C900069300E94EA0D08958EE090E00E9429319B
:101CA00091E0811101C090E0892F0895682F8EE0A6
:101CB00090E00E944D310895A6E0B0E0E2E6FEE03B
:101CC0000C944B300E94D1268C0180918A02909115
:101CD0008B028017910781F019821A820E94D12607
:101CE000682F49815A81792F80E090E00E947C041E
:101CF00010938B0200938A022696E4E00C946730DE
:101D00000E94931160939A0270939B0280939C02AD
:101D100090939D026093960270939702809398022D
:101D2000909399020895089508950E94930E08953E
:101D300008950E94980E089581E0089588EB91E13E
:101D40000E943E160E94940E0E94950E08950E94D5
:101D50009C130895089508950E94AA0E0E94AB0E48
:101D600008950E94AE0D811102C00E94490E0E948A
:101D7000B90D80939E020E94C30D909357038093E8
:101D800056030E94BE0D90E00E94850880913002AB
:101D9000909131020E94A60808950E94C8260E94D0
:101DA0006D110E94B9130E94C5120E94B10E0E94CB
:101DB00056040E9495200E94281D0E94CB130E9469
:101DC000990E0895A6E0B0E0E8EEFEE00C944430F1
:101DD0000E949C0E811110C00E945C0E0E949C13F8
:101DE0000E949F130E94731E0E9474230E9463042A
:101DF0002696EBE00C9460300E94E8128CE8A82E46
:101E000082E0B82E750110E0F70101917F01812F6A
:101E10000E94C2111F5F1A3009F441C00817A1F3D4
:101E200080919E0281FD0E94C8110E94A70EC82EBB
:101E300010E099249394812F0E94C211082FF5017C
:101E400081915F01081729F1F12CEE24E394D02E43
:101E5000D8268D2D8E21A9F0CC2099F0F9821A83F5
:101E60000E94D1269C838B839D8291E0802F8E21BE
:101E700009F490E049815A816B817C818D810E94B7
:101E80007C04F394EE0CF7E0FF12E3CFF5013197F9
:101E900000831F5F1A3079F60E94800E9FCF0817CB
:101EA00009F49ACFBDCF1F93CF93DF930E947A108E
:101EB000EC01C11580E5D807E8F5C11580E4D80725
:101EC00008F09BC0C03ED10518F5CD3CD10508F007
:101ED00081C0C83AD10570F4C53AD10508F072C086
:101EE000C130D10511F118F0C430D105F0F4D0E0C3
:101EF000C0E01BC0C33CD105D0F7C85AD0E0CC0F1E
:101F0000DD1FC257DE4F0990D881C02DD4640DC0AB
:101F1000C11580E2D80708F0CBC0C11581E0D80711
:101F200008F05AC0C83ED10510F7CE01DF91CF911D
:101F30001F910895C03682E5D80718F5C03482E5B0
:101F4000D80708F069C0C03282E5D80708F05DC044
:101F5000C11582E5D80708F493C02C2F2695269545
:101F600080E2289F900111248C2F8370C1E0D0E083
:101F700002C0CC0FDD1F8A95E2F7C22BD32BDD68A0
:101F8000D4CFC03A82E5D80760F4C03882E5D807DC
:101F900008F457C0CF71D0E0DC2FCC27C46FD06AD3
:101FA000C4CFC03C82E5D80708F45EC0C03E82E5DD
:101FB000D80708F09CCFDC2FCC27CC27DF71C06F6F
:101FC000D06AB3CFC55AD0E0CC53DE4FC881D0E041
:101FD000D064ABCFD065A9CF8D2F0E941E11182FD2
:101FE000CE0199270E947A10C12FD0E0DC2FCC2798
:101FF000CC27DF71C82BD92B98CFCE0199270E940F
:102000007A10CC27DF70D06AF5CFCF71D0E0DC2F0B
:10201000CC27C16FD06A89CF2C2F269526952770A3
:1020200080E2289F900111248C2F8370C1E0D0E0C2
:1020300002C0CC0FDD1F8A95E2F7DC68C22BD32BE0
:1020400074CF2C2F26952695277080E2289F90012B
:1020500011248C2F8370C1E0D0E002C0CC0FDD1FB3
:102060008A95E2F7DA68EACF8C2F8F710E941E11F1
:10207000C82FD0E0DC2FCC27CC27DF71D06255CF22
:102080008C2F8F710E941E1155E0D695C7955A95D9
:10209000E1F7CF70D0E0DC2FCC27282F30E084FF91
:1020A00005C044E0220F331F4A95E1F7D069C6CF3F
:1020B0008D2F8F710E941E11182FCE0199270E941B
:1020C0007A10C12FD0E0DC2FCC27CC27DF719062B3
:1020D00091CF7A3038F4673028F4462F672F0E946A
:1020E0005003089590E080E008950E9469100E94D6
:1020F000530F089582389105B9F1B0F481339105F9
:1021000009F47DC048F48932910509F46DC08A3222
:10211000910509F479C008958533910509F45FC0EC
:102120008933910509F10895833E9105D9F138F479
:10213000803E910529F1823E910579F10895863E10
:102140009105D9F1873E910509F43EC0843E910581
:1021500041F52091570321FF24C08091560384FD4F
:1021600019C087EE90E0089520915603237009F07E
:1021700056C02091570323FF14C089E290E00895D0
:102180002091560320FD38C03091570330FF09C01D
:1021900024FF3FC090E080E008952091560322FD87
:1021A000F7CF08952091560322FD36C03091570392
:1021B00030FD35C024FDEECFF4CF2091560323FF30
:1021C000F0CF24FDE7CFCDCF2091560323FD2AC0C9
:1021D0003091570331FFEECF84EE90E008952091C7
:1021E000560325FDCACF08952091560325FD1DC035
:1021F0002091570323FFD5CF89E390E008952091E4
:10220000560326FD15C008952091560326FD13C0E0
:10221000089583EE90E0089582EE90E0089580EEB8
:1022200090E0089586EE90E0089585E390E00895AB
:102230008AE290E0089581E390E0B3CF9091560355
:1022400092FF10C041E0282F2471243009F040E0B3
:1022500031E0282F2871283009F030E0431711F0C1
:102260002CE0822793FF10C041E0282F24712431F5
:1022700009F040E031E0282F2871283109F030E0E2
:10228000431711F02CE082273091570330FF10C024
:1022900051E0282F2171213009F050E041E0282F32
:1022A0002871283009F040E0541711F029E0822706
:1022B00031FF10C041E0282F2171213109F040E0A9
:1022C00031E0282F2871283109F030E0431711F050
:1022D00029E0822794FD877E08951092580310927A
:1022E000590310925A0310925B030895CF92DF9224
:1022F000EF92FF926B017C010E949C1381110EC032
:102300000E94DD26C61AD70AE80AF90AC0925803C5
:10231000D0925903E0925A03F0925B03FF90EF9042
:10232000DF90CF9008950F931F930E949C138823F2
:1023300029F00E94DD261F910F9108950E94DD264D
:10234000009158031091590320915A0330915B0377
:10235000600F711F821F931FEECF0E949C13882372
:1023600019F00E94D12608950E949311CB0108957F
:1023700080E0089508950E94BA11089508950E947A
:10238000BE110895E82FF0E0E959FC4F80810895CF
:10239000089580EA8A95F1F7089500C008950E9493
:1023A000C911089508950E94D2110895A5E0B0E0E2
:1023B000ECEDF1E10C9449300E949C13F82E6091F1
:1023C0007103882309F440C085E0E82E8E010F5F79
:1023D0001F4FF8018E2D11928A95E9F7862F90E014
:1023E000B80189599C4F0E94DB138823B9F0809172
:1023F0005C0390E045E050E0B80189599C4F0E9491
:10240000133121E020939F02892B91F4F12C0E943B
:10241000BF118F2D2596E6E00C94653080919F02C8
:102420008823A1F3F8011192EA94E9F710929F0230
:10243000A0915C03B0E0A959BC4F85E0F801019080
:102440000D928A95E1F7E3CF70E069597C4F809156
:102450005C0390E089599C4F0E9464140E94D31140
:10246000D8CFF894E82FE295EF70F0E031A1282F53
:102470002F7081E090E001C0880F2A95EAF7982F2D
:102480009095932391A392A1892B82A37894089588
:102490000F931F93CF93DF93CEECD1E089918F3FC1
:1024A00011F00E94311281E0C33DD807B9F7C7ECA3
:1024B000D1E00EEC11E089918F3F11F00E943112B2
:1024C0000C171D07C1F7DF91CF911F910F91089550
:1024D000B0E0A0E0EEE6F2E10C944730EC01062F0C
:1024E00010E0C80182539E4F7C01FC0190819F3F08
:1024F00009F444C0D62EF894E92FE295EF70F0E08D
:1025000081A19F7021E030E001C0220F9A95EAF787
:10251000822B81A382A12095282322A378940E9454
:10252000CD11E7ECF1E031E0C12C21912F3F59F1C1
:10253000A22FA295AF70B0E090968C9190E02F7092
:1025400002C0959587952A95E2F780FD1CC0832FE0
:10255000C82A330F81E0EE3CF80739F7F701808194
:102560008F3F11F00E94311261E0C11001C060E0A4
:102570008D2D0E94CF11C00FD11FC882CDB7DEB7FD
:10258000E8E00C94633080E0E3CF80910601809115
:10259000060195E0811190E09093710385E0891B1D
:1025A00080935C030E9448128AE0E7E6F3E0DF01D3
:1025B000982F1D929A95E9F7EDE5F3E0DF011D9262
:1025C0008A95E9F785E00E9426130E94BB110895C1
:1025D000AAE0B0E0EEEEF2E10C944A308E010F5F1B
:1025E0001F4F8AE0F80111928A95E9F7F12C6F2DBF
:1025F000C8010E946812F394F5E0FF12F8CF4AE098
:1026000050E0B8018DE593E00E94133121E000977E
:1026100009F420E0892B41F08AE0F801ADE5B3E050
:1026200001900D928A95E1F76091710370E069590C
:102630007C4F45E08DE593E00E942713182F0E9400
:10264000D611812B2A96E5E00C9466300895B0E00F
:10265000A0E0EDE2F3E10C9447306C017B01042F24
:10266000C22F222379F081E08093A2020E94D1261A
:102670009093A1028093A00280E0CDB7DEB7E8E09E
:102680000C946330D091A202DD23B1F38091A002BB
:102690009091A1020E94E926059770F310E0A8012D
:1026A000B601C7010E941331892B31F0A801B60190
:1026B000C7010E942031CD2F1092A2028C2FDDCFB6
:1026C0000E94DD266093A6027093A7028093A80261
:1026D0009093A90208958093A50208958091AC0279
:1026E0008A3010F01092A5028091A50208950E94F0
:1026F000AE0D811102C00E94490E0E944C0E089539
:102700001F93CF93DF93C8ECD0E00E949C2F182F2B
:1027100081110AC08FE39CE90197F1F700C0000026
:10272000219799F70E94972F812FDF91CF911F91C9
:1027300008958091AB0208958091AA020895809136
:10274000A502811115C00E949C13811111C06091D6
:10275000A6027091A7028091A8029091A9020E94FE
:10276000F826693B7B408105910510F00E944B27BC
:1027700008950E9480138093AA020E947713809389
:10278000AB020E949913809306010E949C13811151
:102790000E94131408950E949C13811104C00E948A
:1027A00016140E946013089581E09091AC029A3053
:1027B00008F080E008950F931F93CF93DF93EC010F
:1027C0008B018091AC028A30F0F4B801CE010E94F6
:1027D0006114C82F811122C08091AC028F3F19F083
:1027E0008F5F8093AC028091AC028A30D0F00E945F
:1027F000D1269093A4028093A3028C2FDF91CF91D6
:102800001F910F9108958091A3029091A4020E94BC
:10281000E926843F9140C8F6C0E0EFCF1092AC02A9
:10282000ECCFC1E0EACF0E94AE2708950E94B12705
:102830000895B0E0A0E0EFE1F4E10C9448307901B4
:10284000C82F880FDD0B41155105A9F0FE0193E05B
:10285000EE0FFF1F9A95E1F7E95FFE4F81819281AC
:1028600083559D4F208130E04217530708F49A01A9
:10287000A9010E942031CE010E949A28D82E8823D7
:10288000D1F001151105B9F083E0CC0FDD1F8A9559
:10289000E1F7FE01E95FFE4F438150E004171507A1
:1028A00008F4A801C95FDE4F6C817D8163557D4FBF
:1028B000C7010E9420318D2DCDB7DEB7E7E00C9423
:1028C00064300E94AE1508950E94D7150895A1E0C6
:1028D000B0E0EDE6F4E10C944B3081E089830E9496
:1028E0006E1381110FC010E000E030E020E041E005
:1028F00050E0BE016F5F7F4F84E00E94191489830E
:102900000E946B1389812196E4E00C946730A4E067
:10291000B0E0EDE8F4E10C944B306091D00270919E
:10292000D1028091D2029091D3020E94F82611E048
:10293000643671058105910518F10E9493116E5F4F
:102940007F4F8F4F9F4F69837A838B839C8310E0E7
:1029500000E030E020E044E050E0BE016F5F7F4FD8
:1029600082E00E941914182F882351F00E94DD265E
:102970006093D0027093D1028093D2029093D302DD
:10298000812F2496E4E00C946730B0E0A0E0EBECFB
:10299000F4E10C9445307C015B016A010E94D41380
:1029A00001E010E0882311F00AE010E0C1E0D0E07F
:1029B000B501C701F6010995811104C021960C17D4
:1029C0001D072CF4CDB7DEB7EAE00C946130CC9F44
:1029D0009001CD9F300D300D112490E080E045E353
:1029E0004A95F1F70000019682179307C1F7E0CFEF
:1029F000ABE0B0E0EEEFF4E10C944B30CE01019689
:102A00000E94451C1B856091D4027091D502809173
:102A1000D6029091D7020E94F8266436710581058E
:102A2000910510F41123C1F010E000E030E020E047
:102A30004BE050E0BE016F5F7F4F83E00E941914AE
:102A4000882369F00E94DD266093D4027093D5023A
:102A50008093D6029093D7020E94421C81E02B966D
:102A6000E4E00C946730A6E0B0E0E9E3F5E10C9413
:102A700045307B01C090D301D090D40101E010E03B
:102A80009E012A5F3F4F50E040E070E060E080E050
:102A90000E941914182F882309F448C056018FEF9B
:102AA000A81AB80A6091CC027091CD028091CE0232
:102AB0009091CF020E94F826643671058105910538
:102AC00068F105E010E09E012F5F3F4F50E040E0CD
:102AD00070E060E081E00E941914D82E65E070E09B
:102AE000C5010E94962011E09E81981310E01D21DF
:102AF00041F10E94DD266093CC027093CD02809359
:102B0000CE029093CF0285E0FE013196A7ECB2E0B1
:102B100001900D928A95E1F711E013C065E070E035
:102B2000C5010E9496209E818913CBCF85E0F601D6
:102B30003196DE01119601900D928A95E1F71111FF
:102B4000E2CF85E0E7ECF2E0D70101900D928A95A3
:102B5000E1F7812F2696EAE00C9461300F931F93E2
:102B6000CF93DF93EC018B0143E355E10E94C51441
:102B7000811106C080E0DF91CF911F910F910895E0
:102B800047E854E1B801CE010E94C514882391F3AF
:102B900048EF54E1B801CE010E94C514882351F3D7
:102BA00047E654E1B801CE010E94C514E4CFABE082
:102BB000B0E0EDEDF5E10C9447300091D3011091B8
:102BC000D401C801019625E0FB01DC0101900D92C2
:102BD0002A95E1F765E070E00E949620F801808375
:102BE0006681778180859185C090C302D090C402B0
:102BF000E090C502F090C6026C157D058E059F051C
:102C000051F06093C3027093C4028093C502909305
:102C1000C6020E9476118BE0F8013A96DE01119609
:102C200001900D928A95E1F7F801148A8B8588232B
:102C300029F060E0CE0101960E946E1DF8018589A1
:102C40000E946B132B96E8E00C9463300E94E20E16
:102C500008950E9468260E94552A0E949E0E0E9496
:102C60006F2A0E94CD0E0E947C2A0E94812A0E9417
:102C700026160E949B2A0E94AC0EF7CF9093050265
:102C8000809304020895EF92FF920F931F93CF93C6
:102C9000DF93EB01E82FD1110EC0442321F0F0E0C7
:102CA000EA50FC4FE4916E2F7E2F8E2FCDB7DEB70A
:102CB000E6E00C9465300D2F10E0282F30E044231F
:102CC00029F02A503C4FF901249130E0F6E0CF9FE3
:102CD000C0011124EFEFF0E0BF010E94BC2FAB0157
:102CE0008C2F90E0880F991FA5E5A49FB001A59FA8
:102CF000700D1124861B970B982F990F980FBF0109
:102D0000601B710B629FD001639FB00D729FB00D6D
:102D100011248B2F9D9FB0011124672F7727EF017E
:102D2000C61BD70BBE01629FE001639FD00D729F4F
:102D3000D00D11247F01E91AF108E09EB001E19E57
:102D4000700DF09E700D1124672F7727E61BF70B8F
:102D5000E29F8001E39F100DF29F100D1124E12FDF
:102D6000722F42305105B1F048F44115510569F018
:102D70004130510561F0EB2F8D2F07C044305105D4
:102D800089F060F046305105B1F76E2F8FCFE22FFA
:102D90007D2FFBCFE22F7B2F812FF7CF7B2F822F31
:102DA000ED2FF3CFEB2F822F712FEFCF41E00E9459
:102DB0004316089508950E94D6160895CF93DF9381
:102DC000762FE901682F842F0E94DB1679836883B0
:102DD0008A83DF91CF91089580917203982F9C7F11
:102DE00029F4837084608093720308958C3AE8F329
:102DF0008370886AF8CFB0E0A0E0E1E0F7E10C94DE
:102E0000473088E090E00E9431316B017C0183E221
:102E100090E00E942931282F30E040E050E060E04F
:102E200070E080E090E000E20E947430B22FA32FA7
:102E3000F42FE52FD62FC72F97018601BC29A12B90
:102E4000FE295E2F532B2B2F3A2F4F2F6D2F7C2FC8
:102E5000CDB7DEB7E8E00C946330B0E0A0E0E3E388
:102E6000F7E10C94433049015A016B017C010E9447
:102E7000EC168401A4016A2D7B2D88E090E00E946D
:102E80005F3194014A2D5B2DB601C70100E20E941B
:102E90008F30622F83E290E00E944D31CDB7DEB7D4
:102EA000ECE00C945F30E2E7F3E025E02083118250
:102EB0008FEF828383831482ABE2B3E012968C910E
:102EC0001297836012968C93758130E04FEF5FEF1D
:102ED00060E0868197810E942D170895809172038A
:102EE00080FF03C086958695089580E008959091AF
:102EF0007603933018F49F5F90937603882391F0C4
:102F000020917203309173034091740350917503C3
:102F100060917603709177038091780390917903A3
:102F20000E942D17089581E00E94771708959091CF
:102F30007603992319F0915090937603882391F0AA
:102F40002091720330917303409174035091750383
:102F50006091760370917703809178039091790363
:102F60000E942D17089581E00E949717089560919F
:102F700033018091720380FF0FC070E080913201B5
:102F800023E0829FC0011124E0910202F09103022C
:102F900086589C4F09950895809134019091350190
:102FA00023E0829FF0011124E658FC4F891728F78F
:102FB0001182108212828F5F3396F8CF9091720344
:102FC00090FF0EC0909134012091350133E0939F22
:102FD000F0011124E658FC4F921718F00E94B71721
:102FE00008958183608342839F5F3396F5CFA3E08A
:102FF000B0E0EDEFF7E10C944D309091720390FF4B
:103000000AC09E012F5F3F4F0E94DE164B816981EF
:103010008A810E94DE172396E2E00C946930CF93F8
:10302000DF93EC01EC81F0E0EF50FD4F4491E2E7DB
:10303000F3E0628181810E94F7178C818F5F8C831E
:10304000DF91CF910895CF93DF93EC01E2E7F3E0B6
:10305000438162818C810E94F7178C818F5F8C8302
:10306000DF91CF910895A3E0B0E0E9E3F8E10C949B
:103070004B308C018091D80281110AC09E012F5FD4
:103080003F4F4FEF6FEF0E94DE168A818093D80288
:10309000F8018481813069F038F04091D8028230A3
:1030A00009F040E080E003C08091D80240E060E099
:1030B00004C06091D80240E080E00E94DE17F80171
:1030C000848190E0019663E070E00E94D02F8483B9
:1030D0002396E4E00C946730A3E0B0E0E2E7F8E187
:1030E0000C944630082FE62EF42EC22E90917203D7
:1030F00090FF41C020917303281308C0809174038E
:10310000861304C080917503841729F080912D03E4
:10311000826080932D03E92FE695E695AE2FB0E00F
:10312000AB52BE4F8C9180932B039C7F943039F52A
:103130009E012F5F3F4F4F2D6E2D802F0E94DE1678
:103140004B8169818A810E94DE1700937303E092AC
:103150007403F0927503CC2071F02091720360919A
:10316000760370917703302FA701809178039091B7
:1031700079030E942D172396E9E00C946230823087
:1031800019F4F0907503E1CF8630A1F1893091F107
:103190008931D9F6E9516E2F6170B62EE695F0E0CF
:1031A000EF50FC4F1491D12C60913601D61618F0D7
:1031B0000E94B717CACFD19EC001112470E00E94AF
:1031C000BC2F802FB11014C0860F20913401622FC4
:1031D0006D0D7727771F9B01220F331F260F371F97
:1031E00026583C4F4F2D6E2D0E94DE16D394DCCF17
:1031F000861BEBCF022FA9CFE2E7F3E09181282FC6
:103200004381628188E0890F0E946C18089581E0F3
:103210000E94FC180895E2E7F3E09181282F438192
:10322000628188EF890F0E946C18089581E00E94E6
:103230000B190895E2E7F3E0628128E0620F08F4D9
:103240006FEF282F438181810E946C18089581E0DF
:103250000E941A190895E2E7F3E0628128E0621BF8
:1032600008F460E0282F438181810E946C18089542
:1032700081E00E942B190895E2E7F3E0438128E002
:10328000420F08F44FEF282F628181810E946C1851
:10329000089581E00E943C190895E2E7F3E043813C
:1032A00028E0421B08F440E0282F628181810E94BF
:1032B0006C18089581E00E944D19089520E00E9445
:1032C0006C180895EF92FF921F93CF93DF93EC0158
:1032D00010E0EE24EA94F12C60913601161770F09C
:1032E0000E94B7179A818C8190FF27C08F5F8C83D3
:1032F000DF91CF911F91FF90EF90089520913401BD
:10330000422F410F5527551FCA019A01220F331F23
:10331000280F391F26583C4F70E0C7010E94D02F5C
:10332000962F8C814091750360917403199F800DD5
:1033300011240E94DE161F5FCFCF8150D8CFB0E09E
:10334000A0E0E5EAF9E10C944330EC018A81BB246A
:10335000B39480FF02C0BB24BA948C8181110AC04F
:1033600081E0B81222C08091360181508093DA0248
:1033700081E08C83A12C4EE0942E80913601A8161A
:10338000B8F00E94B7178091DA0291E0B91259C0E3
:10339000811152C08091360181508093DA021C82E3
:1033A000CDB7DEB7ECE00C945F301092DA02E0CFDC
:1033B00000913401CA2CD12C0C0D1D2D111DC801FA
:1033C000880F991F080F191F06581C4FF80111820A
:1033D0001082128234E0E32EF12C812C8091DA02EB
:1033E000880D8F301CF1692D0E94AE2F892F082E79
:1033F000000C990BC816D90691F4809175038E9D27
:10340000A0018F9D500D11245595479555954795D1
:10341000980160917403809173030E94DE168B0CF7
:10342000F1E0EF1AF108D1F6A394A7CF87FFDFCF21
:1034300090913601890FDBCF81508093DA02BC82F4
:10344000AFCF90E001966091360170E00E94D02FDE
:103450008093DA028C83A4CFEF92FF920F931F9395
:10346000CF93DF93EC018C81811109C081E08C83C3
:103470001092D90292E090933101809330018091B3
:1034800034019091350123E0829FF0011124E65828
:10349000FC4F891758F110E003E0609136011617D0
:1034A00058F10E94B717809130012091D902280F5E
:1034B0002093D90290913101980F90933101191600
:1034C00054F4022E000C330B409136014150550B41
:1034D0002417350734F0819580933001813009F449
:1034E0001C82CDB7DEB7E6E00C9465301182108205
:1034F00012828F5F3396CDCFE12EF12C70E0C701A1
:103500000E94D02F20913401820F482F50E020914B
:10351000D902022E000C330BE216F306BCF0209108
:103520003101022E000C330B2E153F057CF0809FDD
:103530009001112426583C4F40917503609174030B
:10354000809173030E94DE161F5FA7CFFA01EE0F72
:10355000FF1FE40FF51FE658FC4F11821082128204
:10356000F3CFB0E0A0E0E7EBFAE10C944330EC01DC
:103570004C81042F10E09801D8010E9414309B0167
:10358000AC010E942A304B015C01E0E2F0E0E01B5C
:10359000F10BA5E5B0E0AC019B010E942A306B0164
:1035A0007C019F01DF010E940C309B01AC010E9455
:1035B00035309B01AC01280D391D4A1D5B1DC7012B
:1035C000B6010E94E42F022F30E00A3258F5C901FB
:1035D000880F991F880F991F281B390B37FF02C0CE
:1035E0002F5F3F4F359527951FEF120FF12C85E583
:1035F000E82EE01A80913601F81630F10E94B717D4
:103600009C8181E0992319F0903219F48FEF809317
:103610002F0180912F01890F8C83CDB7DEB7ECE0AD
:103620000C945F3085E590E0821B930B9C01220F88
:10363000331F220F331F821B930B97FD0196959525
:1036400087951FEF180FD2CF8E2DF1FC802F209180
:103650003401622F6F0D7727771F9B01220F331FD5
:10366000260F371F26583C4F412F609174030E944C
:10367000DE16F394BFCF0F931F93CF93DF93EC012C
:1036800010E000E0909136019017110609F06CF4FB
:103690000E94B7178C8190E00196817099278C83E6
:1036A000DF91CF911F910F91089520913401A801CE
:1036B000420F511D9A01220F331F240F351F265828
:1036C0003C4F4C81609174038091730396959017E1
:1036D000110651F04CF0442349F0409175030E94CB
:1036E000DE160F5F1F4FCECF4423B9F340E0F7CF74
:1036F000B0E0A0E0EEE7FBE10C943F30FC0162801B
:10370000448081E08483E1EFF2E07490E0E7F3E04D
:10371000E491C0917503C695C158D0E0CC0FDD1F70
:10372000CD2FDD27812C75E0972EAA24AA94B12CE9
:1037300055245A94E719EE2EF12C80913601881603
:1037400038F00E94B717CDB7DEB7E0E10C945B30DC
:10375000C82CD12C82E0861568F09C9CF0019D9CC1
:10376000F00D1124E252FD4F80917303808380910C
:1037700074038183411023C09C9CF0019D9CF00D3B
:103780001124E252FD4F1382128220913401C601AE
:10379000820F911D9C01220F331F280F391F2658BD
:1037A0003C4F9C9CF0019D9CF00D1124E252FD4F7A
:1037B0004281618180810E94DE168394BECF9C9CF1
:1037C00080019D9C100D112402521D4FF801838130
:1037D0008823F1F081508383859DC0011124648189
:1037E00070E00E94BC2FFB01FF27EF50FD4F84913A
:1037F000E82FE719E59DC0011124B7010E94BC2FF5
:1038000080917503689FB0011124F8017283BDCFC8
:103810000E94F630B5010E94D02F8C179D070CF046
:10382000B4CFF2E0F61598F40E94F630B5010E948C
:10383000D02FF80180830E94F630209174032695E2
:10384000622F70E00E94D02F280FF80121839C9CEA
:10385000F0019D9CF00D1124E252FD4F12828091E7
:103860007503893C58F088EC9C9CF0019D9CF00D00
:103870001124E252FD4F8483838387CF8431A0F7E4
:1038800084E1F2CF10922D03089528E0E2E7F3E0FF
:10389000DC0101900D922A95E1F720912B033091E4
:1038A0002C0340912D03FC01208731874287089526
:1038B000EBE2F3E011828281846082830895E2E783
:1038C000F3E080818E7F80830E94581CEBE2F3E05E
:1038D0008281816082830E94B7170895E2E7F3E056
:1038E00020812E7F208331814281538164817581C3
:1038F000868197810E942D170E94581CEBE2F3E00D
:103900008281816082830E94B7170895609172035B
:103910006695669570E04BE050E087E391E00E9489
:103920000631892B19F481E080932C030E94AD119C
:10393000909325038093240380912D0384608093CA
:103940002D0308959091720390FF39C093708111F7
:1039500037C094609093720380912D0381608093AF
:103960002D03662391F020917203309173034091EF
:103970007403509175036091760370917703809181
:103980007803909179030E942D17609172036695D8
:10399000669570E04BE050E087E391E00E940631CD
:1039A000892BB1F00E94581C81E08093270340913D
:1039B000750360917403809173030E945E190895EA
:1039C0008B3210F0986AC6CF880F880F982BC2CF21
:1039D0000E94861CE9CF682F909172039695969568
:1039E00081E0890F8B3208F081E00E94A21C0895CB
:1039F00081E00E94EB1C0895682F909172039695C8
:103A000096958FEF890F09F48AE20E94A21C08950F
:103A100081E00E94FC1C089561E00E94A21C0895B0
:103A2000E2E7F3E0808181608083869586950E943D
:103A30000C1D08958091720380FF03C00E946E1CCC
:103A400008950E94101D089560E00E94A21C089530
:103A500080912A03811141C00E94FB1620937203BA
:103A6000309373034093740350937503609376030C
:103A700070937703809378039093790380912D035B
:103A8000836080932D032C7FA1F40E9453170E9422
:103A9000FB16209372033093730340937403509387
:103AA0007503609376037093770380937803909304
:103AB00079030E94EC160E94581CE0910002F091DC
:103AC000010209958091720380FF04C08695869556
:103AD0000E94241D81E080932A0308951F93CF93B1
:103AE000DF93EC01162F8A8580FF0DC0888180FF4F
:103AF00025C08091720381608093720388818695CE
:103B000086950E94A21C8A8581FF06C0212F4B81C9
:103B10006A8189810E946C188A8582FF05C0898527
:103B2000882379F00E94861C8A8583FF03C081E088
:103B300080932703DF91CF911F9108950E945F1C0E
:103B4000E2CF0E94581CF0CFEF92FF920F931F9389
:103B5000CF93DF9380912C03882309F464C0809174
:103B60002B03E0917203E695E695E81BE0932603AC
:103B7000823009F05DC0F0E0E351FD4FE491CE2FBB
:103B8000D0E00FE018E180912703882361F01092C4
:103B900027030E94AD119093250380932403109274
:103BA0002903109228030E94AD11E0912403F091A3
:103BB00025039C012E1B3F0B2F3F3F47A0F5209173
:103BC000DD022223B1F01092DD022091DB02309160
:103BD000DC02821B930B8F3F9F4758F4205D3A48CD
:103BE0003093DC022093DB0280912D038860809368
:103BF0002D03E0902803F0902903EC0FFD1FF093B4
:103C00002503E093240384E293E0F8010995809171
:103C1000280390912903892B31F4E114F10419F060
:103C200081E08093DD02CDB7DEB7E6E00C9465302D
:103C3000863049F4F0E0E651FD4FE491CE2FD0E01C
:103C400003E218E1A0CF893051F4E695F0E0E951A4
:103C5000FD4FE491CE2FD0E002E619E194CF8F30F2
:103C600051F4E695F0E0EC51FD4FE491CE2FD0E019
:103C70000FE919E188CF853149F4F0E0EF51FD4FAC
:103C8000E491CE2FD0E00CE21AE17DCFC8E2D0E083
:103C900001EB1AE1883109F476CF833239F4EFED84
:103CA000F2E0C591D49103E318E16DCFC4EFD1E008
:103CB0000BE31BE1843209F466CFC0EDD7E00AEDD7
:103CC00016E1853209F05FCF8E2F63E00E94A22FAC
:103CD000E92FF0E0E452FD4FE491CE2FD0E008E769
:103CE0001BE151CF08950E94A41D0895FA0181118E
:103CF00001C0FB0109950895CF93DF93C82FD62FFC
:103D00000E946E178C1748F00E946E178D1728F4CA
:103D10000E94F81CDF91CF9108958C2F0E940C1DFA
:103D2000F9CF1F93CF93DF93FB011581111126C0AB
:103D3000EC010E94B30C8272FE01E052F847E531BB
:103D4000F10508F073C0E955F14E0C940630BC1E25
:103D5000C31ECA1ECF1ED41ED91EDE1EE31EE81EC1
:103D6000ED1EF21EF71EFB1E001F031F061F091F7C
:103D70000C1F0E1F111F131F0E941A1D812FDF9190
:103D8000CF911F91089548E05DE168EF7CE10E94CA
:103D9000761EF4CF48EF5CE168E07DE1F8CF46E1C4
:103DA00059E167E079E1F3CF47E059E166E179E174
:103DB000EECF48E359E167E279E1E9CF47E259E123
:103DC00068E379E1E4CF4AE559E169E479E1DFCFDD
:103DD00049E459E16AE579E1DACF43EB57E163E978
:103DE00077E1D5CF43E957E163EB77E1D0CF81E0CD
:103DF0000E940C1DC3CF65E082E00E947C1EBECFF6
:103E000068E086E0FACF6EE089E0F7CF64E18FE00A
:103E1000F4CF67E185E1F1CF88E1EACF62E289E1A1
:103E2000ECCF83E2E5CF6AE285E2E7CF11E0A6CFEF
:103E3000539A08952BB1277F3BB138604FB7F89460
:103E4000FC01CB01880F991F680F791F6E0F7F1F30
:103E5000E617F70741F44FBF8FE594E00197F1F7BC
:103E600000C000000895819198E03BB9000000C0B7
:103E700087FF2BB9880F000000C000C000C02BB91D
:103E800000C09A9591F7E4CF8B3109F467C040F5F3
:103E90008B3071F078F4863009F447C020F4853017
:103EA00059F180E00895873009F449C08830C9F796
:103EB00081E00895803109F45FC068F48E3089F79D
:103EC00090919E02892F8B7F92FF846080939E0247
:103ED00082FD4EC0EDCF863159F3893149F3E1CFF0
:103EE0008A3201F160F48732B1F020F48E31C8F2E9
:103EF0008D514EC08932A9F60E94CC03D9CF8334AC
:103F000040F48A3308F043C0853329F0883381F2C6
:103F1000C8CF833431F681E090E00E9485080E948A
:103F20003908C6CF0E94490EC3CF80919E02817F7F
:103F30008E7F80939E0281E080933103089590915B
:103F40009E02892F8E7F90FF816080939E0280FD6C
:103F5000AFCF897F877F80939E02AACF90919E02E8
:103F6000892F8D7F91FF826080939E0281FFA0CF79
:103F700080919E028160EFCF90919E02892F877F72
:103F800093FF886080939E0283FDF2CF91CF895387
:103F900021E030E0A90102C0440F551F8A95E2F7E5
:103FA000CA01BBCF80E008950E94D21F0895CF932D
:103FB000C82F809131038130B1F030F08230A9F107
:103FC0001092310380E00DC00E94B30C8232D1F711
:103FD0008C2F0E94D21F811118C08C2F0E94441F69
:103FE0008170CF9108950E94B30C823289F38C2F97
:103FF0000E94D41F811110C0C43181F048F4CB302D
:1040000059F0C03171F080E0EBCF81E090E0E8CF73
:10401000C93221F0C833B9F781E0E2CF1092310301
:10402000F2CF82E080933103F7CFC93209F43FC069
:10403000E8F4C431E1F128F4C73009F45DC081E04F
:10404000D0CF82EE8C0F8A30D0F7CD51C0933003A1
:10405000C33009F446C0B0F5C13009F43FC088E46C
:1040600091E0C230B1F110923003E9CFC03509F4CC
:1040700041C0B8F48AE0CF3411F7E0912E03F091FB
:104080002F033097E1F22081082E000C990B820F4C
:10409000911D8F3F910509F00CF443C08FEF808391
:1040A000CECFC135E1F181E0C23539F3C8CF80917F
:1040B0003003882321F21092300310922F031092C4
:1040C0002E03BDCFC53099F078F082E491E0C63080
:1040D00051F690932F0380932E03B1CF89E491E0A2
:1040E000F8CF87E491E0F5CF86E491E0F2CF83E466
:1040F00091E0EFCF86EFC1CF81E08093490184E169
:10410000809348018AE0809347018EE180934601C5
:1041100088E08093430188E28093420190CF8FEF43
:10412000ACCF97FFBCCF10828ACF0895FC01680FF7
:10413000791F8FEF91E3E617F70709F408952191AE
:10414000822728E030E087FF06C0880F89272150AA
:104150003109C9F7F0CF880FFACFCF93DF938631BB
:104160009C4719F5EB010E94B30C9D81992399F0AE
:104170008A7A91E009F490E090933203811109C0AA
:1041800089E20E94E2250E94440D80E0DF91CF91F8
:10419000089585E3F6CF80913203811104C089E24E
:1041A0000E94EA25F0CF85E3FBCF81E0EFCFCF93EC
:1041B000DF93EC01FB018581882309F4F5C09E01A2
:1041C00030572332310508F0D5C00E94C30D9093BB
:1041D000570380935603FE01E150F047E232F105A8
:1041E00008F026C0EA50FF4D0C9406305221C6213B
:1041F0005A21242128215E212C2162216E2138217F
:10420000BF213C217221402176219E2144217A2127
:10421000A5214A21802188213021662134216A216B
:104220004E2184219421AE21BD211E215621CD2174
:104230008091560381608093560393C08091570309
:104240008860809357038DC0809156038260F3CFBE
:10425000809156038460EFCF809156038860EBCF46
:10426000809157038160EDCF809157038260E9CF41
:10427000809156038061DFCF809156038062DBCF4F
:10428000809156038064D7CF0E94390880915603ED
:104290008068D1CF809156038860DCCF809157032E
:1042A0008260E0CF809156038E7FC5CF8091570307
:1042B000877FC7CF809156038D7FBDCF80915603F6
:1042C0008B7FB9CF80915603877FB5CF80915703FD
:1042D0008E7FB7CF809157038D7FB3CF80915603E8
:1042E0008F7EA9CF809156038F7DA5CF80915603F5
:1042F0008F7BA1CF0E943908809156038F779BCF87
:1043000080915603877FDCCF809157038D7FE0CF6C
:104310008091560382FB992790F921E0922790FB28
:1043200082F990FB83F987CF80915703982F90955E
:1043300091708E7F892B90FB81F983CF90915603EA
:10434000892F8F7B96FF806476CF0E9439089091E9
:104350005603892F97FB87F980586DCF81E00E9423
:10436000560E80915603909157030E94C80D0E94EB
:10437000390880E0DF91CF91089580E0F0CF9091EF
:104380005603892F8F7E94FF806155CF90915603FD
:10439000892F8E7F90FF81604ECF90915703892F98
:1043A000877F93FF88604DCF81E0E4CF282F35EBE6
:1043B0002303C001112497FF04C080589109892F5D
:1043C000089580589F4FFBCF8091390380FF0DC027
:1043D0006091470170E0660F771F6038710580F5C6
:1043E0006115710579F1862F089581FF07C06091ED
:1043F000470184E0689FB0011124EFCF82FF04C021
:104400006091470188E0F6CF209138032223A9F07C
:10441000909146016091470188E0689FB0011124A6
:104420002917D8F6269FA001279F500D1124692F28
:1044300070E0CA010E94D02FD0CF68E070E0D3CFE7
:104440008FE7089581E008958091390380FF0CC0C3
:104450006091430170E07595679575956795611555
:10446000710549F1862F089581FF06C060914301CF
:1044700070E075956795F3CF6091430182FD0BC0A5
:10448000909137039923A1F06091420180914301FB
:10449000961738F0682F70E06038710500F38FE7E9
:1044A0000895899FC001112470E00E94D02FF4CF9D
:1044B00061E070E0D7CF81E008958D3C31F40E9437
:1044C000E421819580933D0308958E3C19F40E9468
:1044D000E421F8CF8F3C31F40E94E4218195809350
:1044E0003C030895803D19F40E94E421F8CF893DF2
:1044F00029F40E94242280933E0308958A3D21F4EA
:104500000E9424228195F7CF8B3D31F40E94242212
:10451000819580933F0308958C3D19F40E942422D5
:10452000F8CF9FE2980F983070F4815D990B21E0ED
:1045300030E001C0220F8A95EAF780913B03822B7D
:1045400080933B0308958D3D31F480913903816060
:104550008093390308958E3D21F480913903826060
:10456000F7CF8F3DB9F7809139038460F1CF8D3C4F
:10457000D9F490913D0397FF1DC010923D038091A7
:104580003C03811106C080913D03811102C010924D
:10459000380380913E03811106C080913F03811151
:1045A00002C01092370308958E3CD9F490913D03D8
:1045B00019161CF39FE2980F983008F03FC0815DF8
:1045C000990B21E030E0A90102C0440F551F8A95E4
:1045D000E2F7CA01809590913B03892380933B03C6
:1045E000CECF90913C038F3C29F497FFE3CF1092FC
:1045F0003C03C5CF803D19F41916CCF3DBCF909165
:104600003E03893D29F41916ACF610923E03B7CF4C
:104610008A3D19F497FFCECFF8CF8B3D39F49091B6
:104620003F0397FFC7CF10923F03A9CF8C3D09F0FE
:10463000C1CF90913F031916B4F3BCCF8D3D31F437
:10464000809139038E7F8093390399CF8E3D21F479
:10465000809139038D7FF7CF8F3D09F090CF809106
:1046600039038B7FF0CF0E94D12620913C0321118A
:1046700004C020913D03222321F0909336038093C0
:10468000350320913E03211104C020913F032223D2
:1046900021F090933403809333038AE393E00E94E4
:1046A0004025089586E0EAE3F3E0DF011D928A9554
:1046B000E9F71092380310923703109239030895E6
:1046C000FC01828181110EC0838181110BC0848124
:1046D000811108C091E08581811101C090E0892F8E
:1046E0008170089581E0FCCFA6E0B0E0EAE7F3E254
:1046F0000C944C3086E0EAE3F3E0DE011196019081
:104700000D928A95E1F710923C0310923D031092AE
:104710003E0310923F038B81811103C08C8188235B
:1047200089F080913503909136030E94E926AC010F
:10473000909138039923D9F1809148018417150687
:1047400008F442C08D81811103C08E81882391F0CD
:1047500080913303909134030E94E926AC0190913B
:104760003703992309F46AC0809144018417150620
:1047700008F472C0BE016F5F7F4F8AE393E00E942E
:10478000FD25811105C08AE393E00E946023811119
:104790000E94332386E0FE013196AAE3B3E0019044
:1047A0000D928A95E1F72696E3E00C94683020910B
:1047B00049018AE0289F900111242417350710F63B
:1047C0009F5F9093380302C09F3FD1F71B81112355
:1047D00059F00E94E4219FEF11160CF491E0899F9B
:1047E000802D112480933C031C81112359F00E94D9
:1047F000E4219FEF11160CF491E0899F802D112484
:1048000080933D0380913C03882309F49BCF109152
:104810003D03112309F496CF0E94D621882351F03D
:1048200080933C03812F0E94D621882329F0809316
:104830003D0388CF81E0F4CF81E0F9CF209145019D
:104840008AE0289F900111242417350708F092CFA1
:104850009F5F9093370302C09F3FD1F71D811123C3
:1048600059F00E9424229FEF11160CF491E0899FC9
:10487000802D112480933E031E81112359F00E9444
:1048800024229FEF11160CF491E0899F802D1124B2
:1048900080933F0380913E03882309F46BCF1091EE
:1048A0003F03112309F466CF0E94D621882351F0DB
:1048B00080933E03812F0E94D621882329F0809384
:1048C0003F0358CF81E0F4CF81E0F9CF0F931F93DE
:1048D000CF93DF93C42FD22FFC0185818823C9F0A9
:1048E000409342030E94D12690934103809340035A
:1048F00080E28C0F883040F4C77081E001C0880FDF
:10490000CA95EAF70E94CD05DF91CF911F910F91D3
:10491000089510914203141332C080914003909186
:1049200041030E94E926883C910548F5C0E2CD0F7D
:104930001D17B9F080E2810F883040F4177081E0D4
:1049400001C0880F1A95EAF70E94D405C83010F507
:1049500081E09D2F977001C0880F9A95EAF70E9419
:10496000CD05802F0E94C405C83070F6D77081E055
:1049700001C0880FDA95EAF70E94D405C5CF80E21E
:104980008C0F883008F6C77081E001C0880FCA9587
:10499000EAF7F2CF802F0E94C405B6CF0F93FC0137
:1049A000E851FC47E730F10508F03AC0CB01E55289
:1049B000FB4D0C940630F224F824E224EC24FE246F
:1049C00004250A2506E221EE41EE6AE17CE70E9419
:1049D000662480E00F91089507E225EE45EE6BE135
:1049E0007CE7F5CF06E221EE40EE68E17CE7EFCF11
:1049F00007E225EE44EE69E17CE7E9CF06E221EE2D
:104A000042EE6CE17CE7E3CF07E225EE46EE6DE196
:104A10007CE7DDCF08E221E045EE6EE17CE7D7CF11
:104A2000FB018581882319F010924203D3CF81E0E6
:104A3000D1CF909349038093480308950E949C131B
:104A4000811103C0809143030895E0914803F091E0
:104A50004903309729F00190F081E02D09950895E0
:104A600080E008950E941E250895E0914803F0918A
:104A70004903309721F00280F381E02D09950895D4
:104A8000E0914803F0914903309739F022E0DC01CE
:104A90002C930680F781E02D09950895A3E0B0E0FE
:104AA000E4E5F5E20C944D30209146033091470344
:104AB00028173907A1F09093470380934603E091AC
:104AC0004803F0914903309751F023E029839B83F9
:104AD0008A830084F185E02DCE0101960995239605
:104AE000E2E00C946930A3E0B0E0E9E7F5E20C9471
:104AF0004D30209144033091450328173907A1F028
:104B00009093450380934403E0914803F091490357
:104B1000309751F024E029839B838A830084F185B8
:104B2000E02DCE01019609952396E2E00C946930C0
:104B3000E0910401F0910501329697E080E09150F8
:104B400009F4089521912223D1F38F5FF8CF8823B0
:104B500071F02091040130910501F9013296285F2E
:104B60003F4F9191981729F0E217F307D1F780E0B2
:104B7000089581E008959C01FC0132969FEF80E04A
:104B80004191461751F09F3F19F4411101C0982FF0
:104B90008F5F8630A9F79F3F09F40895290F311DD3
:104BA00097FD3A95F90162830895FC0132960896C3
:104BB0002191261303C0DF0111971C92E817F90712
:104BC000B9F70895682F80910401909105010E9422
:104BD000BB250895682F80910401909105010E94E2
:104BE000D5250895E0910401F0910501329686E003
:104BF000DF011D928A95E9F70895DC01FB0111960A
:104C00009C9111978181981322C012968C911297D2
:104C1000882319F0928189131AC013968C911397E7
:104C2000882319F09381891312C015968C911597DA
:104C3000882319F0958189130AC014969C919923B1
:104C400021F081E02481291303C080E001C081E0CC
:104C50008170089508950E942A260895811106C042
:104C600081E080934A030E942B26089582E0F9CFC9
:104C700083E080934A030E942B2608950E942E26EB
:104C8000089581E080934A030E942B2608950E9494
:104C900041260895089508950E944B260895089589
:104CA00008950E944A260895CF930E944F260E949D
:104CB000E8120E945026C0E08C2F0E94C211811180
:104CC00005C0CF5FCA30C1F7CF91089581E0FCCF16
:104CD00085B7806885BF85B7806885BF08951F92B6
:104CE0000F920FB60F9211248F939F93AF93BF93A0
:104CF00080914B03811113C08091A4039091A5036F
:104D0000A091A603B091A7034196A11DB11D809368
:104D1000A4039093A503A093A603B093A703BF9108
:104D2000AF919F918F910F900FBE0F901F9018958C
:104D30008091AC03843031F10E943A0410924B030D
:104D400088E190E020E40FB6F894A8958093600085
:104D50000FBE2093600083B7817F846083BF83B7D9
:104D6000816083BF7894889583B78E7F83BF0FB6A9
:104D7000F894A895809160008861809360001092FB
:104D800060000FBE08950E9439080E943F040895F4
:104D900082E084BD93E095BD9AEF97BD80936E004D
:104DA00008952FB7F8948091A4039091A503A09142
:104DB000A603B091A7032FBF08952FB7F894609171
:104DC000A4037091A5038091A6039091A7032FBF20
:104DD00008959C014FB7F8948091A4039091A50386
:104DE000A091A603B091A7034FBF821B930B089518
:104DF000CF92DF92EF92FF922FB7F894C090A40366
:104E0000D090A503E090A603F090A7032FBFA701C1
:104E10009601261B370B480B590BCA01B901FF90AD
:104E2000EF90DF90CF90089578941F920F920FB675
:104E30000F9211248F939F93AF93BF938091A403FC
:104E40009091A503A091A603B091A7030196A11D7F
:104E5000B11D8093A4039093A503A093A603B093E0
:104E6000A703BF91AF919F918F910F900FBE0F90AD
:104E70001F90189587E797E79093010880930008A3
:104E800088E19AE00FB6F894A895809360000FBE71
:104E900090936000FFCF88E19AE00FB6F894A89550
:104EA000809360000FBE90936000FFCF8EE1489B1F
:104EB00002C08150E1F7489BFECF0895589880E2E8
:104EC0008A95F1F7589A0895FC013BE03A95F1F77D
:104ED00098E020E080E031E040E14A95F1F7880F6A
:104EE000489B02C08160232742E04A95F1F7000009
:104EF00040E14A95F1F7915079F790E19A95F1F7F1
:104F000099B132E03A95F1F7000040E14A95F1F7A6
:104F1000917092272081920F90830895A1E0B0E0D4
:104F2000E4E9F7E20C94493019828C017C01E60E29
:104F3000F11C0E151F0541F481E09981911180E06B
:104F40002196E6E00C9465300E945627CE0101962A
:104F50000E946427F80181938F01EBCF509A589AF1
:104F600008955098589AE89AE9E6F0E080818C7F9D
:104F7000808308956150770B91E001C0990F6A9585
:104F8000EAF720E031E0911108C0222391F0589A0D
:104F900080E28A95F1F758980895492F482339F00F
:104FA000589A232740E24A95F1F79695ECCF589806
:104FB000F9CF5898EDCFFF920F931F93CF93DF93C4
:104FC000EC018C01060F111DC017D10729F4CDB7D4
:104FD000DEB7E5E00C946630F9900E945E2768E049
:104FE0008F2D0E94BA27F0CF1F920F920FB60F920B
:104FF00011240F931F932F933F934F935F936F93BE
:105000007F938F939F93AF93BF93EF93FF93CF9330
:10501000DF931F92CDB7DEB719820E945627CE01CB
:1050200001960E946427082F069506950695982FED
:1050300092959570202F2570920F292F23709695A9
:105040009695920F877089135FC0898181115CC02A
:10505000063008F059C080E18A95F1F7589A509AC5
:1050600082E08A95F1F700C0589888E0089F800197
:105070001124D801A95FBE4F1696ED91FC911797A8
:105080003097A9F06091D3017091D40114962D91BD
:105090003C911597260F371F11968D919C91129771
:1050A000680F791F13964C9113978C910995F8010D
:1050B000E95FFE4F6381662351F08091D3019091A7
:1050C000D40124813581820F931F0E94DB270E9427
:1050D0005E2780E18A95F1F758985098589A80E1B8
:1050E0008A95F1F7F801E95FFE4F6081662351F080
:1050F0008091D3019091D40121813281820F931F3D
:105100000E948E270E9456270F90DF91CF91FF912A
:10511000EF91BF91AF919F918F917F916F915F912F
:105120004F913F912F911F910F910F900FBE0F90B4
:105130001F9018950F931F93CF93DF93863091059F
:105140000CF04DC0EC01F894509A589885E08A957F
:10515000F1F700009C2F969595708C2F8570980F15
:10516000892F83709695969523E0CC0FDD1F2A95A5
:10517000E1F7980F8E01092B0E945E2700C068E0BE
:10518000802F0E94BA2780E18A95F1F75098589AAB
:10519000489B1EC087E090E048991CC0FE01E95F73
:1051A000FE4F63816623F9F08091D3019091D40181
:1051B00024813581820F931F0E948E27811113C095
:1051C000509A589A7894DF91CF911F910F9108953A
:1051D00000C0DECF019729F4509A589A789480E065
:1051E000F2CF00C0D9CF0E94562780E28A95F1F70E
:1051F0005898509A80E18A95F1F7C95FDE4F68812F
:10520000662351F08091D3019091D40129813A8194
:10521000820F931F0E94DB270E945E27789481E013
:10522000D2CF80915403089508959B019091AC03CF
:105230009430F1F48F708093E9008FEF9091E80043
:10524000815095FD06C095ED9A95F1F7000081110A
:10525000F5CF8091E80085FF0BC0BA01C90150E08D
:1052600040E00E940F2B8091E8008E778093E80049
:10527000089543E050E0BC0182E00E9415290895A2
:1052800046E050E0BC0182E00E9415290895CF93CA
:10529000DF93EC0148E050E0BC0181E00E94152959
:1052A00088E0FE01ACE4B3E001900D928A95E1F74D
:1052B000DF91CF9108958091AB03811109C00E94C5
:1052C0009F2C0E94FC2C8091E20084608093E2007D
:1052D00008951092AB0308950E94412608956091AD
:1052E000A80381E0611101C080E00E943826089582
:1052F0009091AC0381E0943009F080E06091A803C4
:105300000E943E26089542E061EC81E00E941D2C3F
:1053100042E261EC82E00E941D2C9091AC0381E09E
:10532000943009F080E06091A8030E942E26089531
:105330008091AE03833009F464C030F48130E9F128
:10534000823009F4A1C008958A3009F48DC08B30F1
:1053500009F472C0893009F053C08091AD038132E5
:1053600009F04EC08091B1039091B203029708F00A
:1053700047C08091E800877F8093E8008091E80033
:1053800082FF3AC08091F3009091F200892798271C
:105390008927029731F48091F100813011F0863035
:1053A00021F48091F100809354038091E8008B7781
:1053B0008093E8000E94512C23C08091AD03813A74
:1053C000F9F48091E800877F8093E8008091B10331
:1053D0009091B203892B61F468E08CE493E070E073
:1053E0000E945E2B8091E8008B778093E8000895FF
:1053F00060E090E080E0F3CF8091AC038111BECFFC
:1054000008958091AD03813AD9F78091B1039091CD
:10541000B203892BA9F78091E800877F8093E80089
:105420008091E80080FFFCCF809154018093F100CF
:105430008091E8008E77BCCF8091AD03813201F777
:105440008091B1039091B203892BD1F68091E8004D
:10545000877F8093E8000E94512C8091AF03809356
:1054600054010E94390808958091AD03813241F6BC
:105470008091E800877F8093E8000E94512C809102
:10548000B0038093550308958091AD03813A09F0EC
:10549000B7CF8091E800877F8093E8008091E80093
:1054A00080FFFCCF80915503C1CF84B7877F84BF35
:1054B0000FB6F894A8958091600088618093600091
:1054C000109260000FBE80E890E00FB6F8948093D1
:1054D0006100909361000FBE0E94472608950E94CC
:1054E0009F2C0E94FC2CE2EEF0E08081846080839F
:1054F00078940E947B2F08958AE491E00E941925F8
:1055000008958091AC03853031F48091AC038530EF
:1055100019F00E94C32608950E9498260E945426DE
:10552000882399F38091AA03882379F30E94F92AAA
:105530000E943908EACF08959A014091B30350912F
:10554000B4030E94A42A0895492F552743305105DA
:1055500071F158F441305105E9F04230510511F133
:1055600090E080E050E040E019C04132510591F1F7
:1055700042325105A9F784E490E046EE55E061150A
:10558000710561F08BE790E04BE655E06130710505
:1055900029F0E6CF82E190E049E555E0F901518339
:1055A000408308958BE390E04EE155E0F7CF9927D3
:1055B0008130910561F028F0029791F6E6EFF4E072
:1055C00002C0EAE1F5E0849190E0AF01E7CFE4E0CA
:1055D000F5E0F9CF89E090E040E355E06115710511
:1055E000E9F289E090E049E455E061307105B1F2FB
:1055F000B7CF80E189BD82E189BD09B400FEFDCF4E
:105600008091D8008F7D8093D8008091E0008260E7
:105610008093E0008091E00081FDFCCF0895AF927F
:10562000BF92CF92DF92FF920F931F93CF93DF939E
:105630006C01EB018A010E94702CF82E811123C0AD
:105640000115110539F0F80180819181C81BD90B32
:10565000C80ED91EB12CA12C2097A9F08091E8008A
:1056600085FD22C08091E8008E778093E8000115C7
:105670001105A1F0F80180819181A80EB91EB182B7
:10568000A08285E0F82E8F2DDF91CF911F910F9191
:10569000FF90DF90CF90BF90AF9008950E94702C44
:1056A0008823D1F2F82EEFCFF60181916F0180931C
:1056B000F1002197FFEFAF1ABF0ACECFFC01809116
:1056C000B3039091B40386179707A0F06115710595
:1056D00029F49091E8009E779093E80090E061159E
:1056E000710551F4911108C08091E80082FF35C026
:1056F00080E00895BC01F2CF8091AC038823C9F10A
:105700008530C9F18091E80083FD31C08091E800C7
:1057100082FDEACF8091E80080FFE1CF2091F30085
:105720008091F200322F282F6115710519F0283071
:10573000310558F091E02830310509F090E02091D2
:10574000E8002E772093E800CACF81918093F10082
:10575000615071092F5F3F4FE7CF8091AC038823E1
:1057600041F0853041F08091E80083FFBDCF81E0BA
:10577000089582E0089583E00895FC018091B303C9
:105780009091B40386179707A0F06115710529F46D
:105790008091E8008E778093E80090E061157105B4
:1057A00051F4911108C08091E80082FF36C080E07A
:1057B0000895BC01F2CF8091AC038823D1F18530EC
:1057C000D1F18091E80083FD32C08091E80082FD34
:1057D000EACF8091E80080FFE1CF2091F300809133
:1057E000F200322F282F6115710519F0283031058C
:1057F00058F091E02830310509F090E08091E80000
:105800008E778093E800CACF84918093F10031961F
:10581000615071092F5F3F4FE6CF8091AC03882321
:1058200041F0853041F08091E80083FFBCCF81E0FA
:10583000089582E0089583E00895982F973028F026
:105840008F708093E90081E008959093E900242F00
:10585000762F50E0981731F07091EC002091ED0018
:105860005091F00021FD02C09F5FE8CF3091EB0026
:105870003E7F3093EB003091ED003D7F3093ED00A3
:105880003091EB0031603093EB007093EC0020938B
:10589000ED005093F0002091EE0027FDE5CF80E071
:1058A00008958091AD0387FF13C08091E80082FFC7
:1058B00006C08091E8008B778093E80004C0809157
:1058C000AC038111F2CF08958091AC038823D9F302
:1058D0008091E80080FFF8CF8091E8008E77ECCFD0
:1058E0002091E4003091E50085E69091EC0090FF76
:1058F00006C09091E80090FF06C080E00895909166
:10590000E80092FDFACF9091AC03992391F0953085
:1059100091F09091EB0095FD10C04091E400509102
:10592000E5002417350709F381509A01F1F684E068
:10593000089582E0089583E0089581E008950E942B
:105940000E2D0E94162DE0EEF0E0808181608083B4
:10595000E8EDF0E080818F77808319BCA7EDB0E09F
:105960008C918E7F8C9380818F7E80831092AB038D
:1059700008950F931F93CF93DF930E940E2D0E94E3
:10598000162DC8EDD0E088818F7788838881806864
:10599000888388818F7D888319BC1092AC03109214
:1059A000A8031092AA031092A90300EE10E0F801D8
:1059B00080818B7F808388818160888342E060E082
:1059C00080E00E941D2CE1EEF0E080818E7F8083DC
:1059D000E2EEF0E080818160808380818860808356
:1059E000F80180818E7F8083888180618883DF9148
:1059F000CF911F910F910895E8EDF0E080818F7EA7
:105A00008083E7EDF0E080818160808384E082BF65
:105A100081E08093AB030E94B92C0895E8EDF0E09B
:105A200080818E7F80831092E20008951092DA00C8
:105A30001092E10008951F920F920FB60F92112459
:105A40002F933F934F935F936F937F938F939F9386
:105A5000AF93BF93EF93FF938091E10082FF0BC060
:105A60008091E20082FF07C08091E1008B7F8093EC
:105A7000E1000E947A2F8091DA0080FF19C08091A6
:105A8000D80080FF15C08091DA008E7F8093DA0005
:105A90008091D90080FF94C080E189BD82E189BDF9
:105AA00009B400FEFDCF81E08093AC030E945B2926
:105AB0008091E10080FF19C08091E20080FF15C055
:105AC0008091E2008E7F8093E2008091E20080610D
:105AD0008093E2008091D80080628093D80019BC46
