:100000000C9413030C944E250C9430030C94300381
:100010000C9430030C9430030C9430030C94300394
:100020000C9430030C9430030C947B2C0C944F2DC7
:100030000C948F270C9430030C9430030C943003F1
:100040000C9430030C9430030C9430030C94300364
:100050000C9430030C9432280C9430030C9430032D
:100060000C9430030C9430030C9430030C94300344
:100070000C9430030C9430030C9430030C94300334
:100080000C9430030C9430030C9430030C94300324
:100090000C9430030C9430030C9430030C94300314
:1000A0000C9430030C9430030C94300335421E0042
:1000B0001F0020002100220021522B0014001A00F2
:1000C0000800150017002F00294204001600070041
:1000D00009000A003143E1001D001B000600190061
:1000E00005003800E00057005600E3002A002C000D
:1000F0004C002D4227002600250024002300215219
:100100002E00130012000C0018001C0030003400F8
:1001100033000F000E000D000B004D43E5003800CA
:1001200037003600100011004A004F005200510005
:100130005000E2002C00280001003A003B003C0087
:100140003D003E00010001001E021F022F0230028E
:10015000310201000100200221022F003000350091
:1001600001000100220223022602270235020100BB
:100170000100010001000100010001000100000078
:1001800043004200410040003F00010000005600D3
:10019000610060005F0054000100000057005E0035
:1001A0005D005C0055000100000058005B005A0033
:1001B0005900000001000000580063006200620066
:1001C0000100010001000100010001000100010027
:1001D000010000002900CD000000D900000001004E
:1001E0000000CF00CE00D000DA00000001000000C7
:1001F000AC00AE00AB0000000000010000000000F9
:10020000000000000000D100D20001000100010048
:100210000100010001000100000000000000520088
:10022000000000000100000000004F0051005000DD
:1002300000000000000000000000000000000000BE
:1002400001000000000000000000000001000100AB
:1002500000003A003B003C003D003E0023780000D7
:10026000007C2B78207821782478000000000000A2
:10027000000000000000000001000000000000007D
:10028000000000000000000000000000000000006E
:100290000000000000000000430042004100400058
:1002A0003F00267800000000000027782878257895
:1002B000000000000000000000000000000001003D
:1002C000000000000000000000000000000000002E
:1002D0000000000000000000000000001E0F0500EC
:1002E000047F3F1F643214643214783C1E1E140ACB
:1002F000052223252628292A2C2D2F303233353666
:10030000383A3B3D3E4042434547494A4C4E5051A6
:10031000535557595A5C5E6062646668696B6D6FCD
:1003200071737577797B7D7F81838587898A8C8ED0
:1003300090929496989A9C9E9FA1A3A5A7A8AAACD8
:10034000AEAFB1B3B4B6B8B9BBBCBEBFC1C2C3C512
:10035000C6C7C9CACBCCCDCED0D1D2D2D3D4D5D6B4
:10036000D7D7D8D9D9DADADBDBDBDCDCDCDCDCDDE7
:10037000DDDDDDDCDCDCDCDCDBDBDBDADAD9D9D8CB
:10038000D7D7D6D5D4D3D2D2D1D0CECDCCCBCAC963
:10039000C7C6C5C3C2C1BFBEBCBBB9B8B6B4B3B192
:1003A000AFAEACAAA8A7A5A3A19F9E9C9A9896942D
:1003B00092908E8C8A89878583817F7D7B79777502
:1003C00073716F6D6B6968666462605E5C5A5957E1
:1003D000555351504E4C4A4947454342403E3D3BA0
:1003E0003A3836353332302F2D2C2A29282625232A
:1003F00022FFAA7F55400001010101010101010115
:1004000002020202020202020203030303030303C5
:100410000304040404040404050505050506060692
:100420000606070707070708080808090909090A4F
:100430000A0A0B0B0B0C0C0C0D0D0D0E0E0E0F0FF4
:100440000F10101111111212131314141515161682
:100450001717181819191A1A1B1B1C1D1D1E1E1FF1
:100460002020212222232424252626272829292A40
:100470002B2C2D2D2E2F3031323233343536373868
:10048000393A3B3C3D3E3F40414243444546474864
:10049000494A4C4D4E4F50515354555658595A5B3A
:1004A0005D5E5F616264656668696B6C6D6F7072DA
:1004B000737577787A7B7D7E8082838587888A8C46
:1004C0008E8F91939596989A9C9EA0A2A3A5A7A97A
:1004D000ABADAFB1B3B5B7BABCBEC0C2C4C6C9CB71
:1004E000CDCFD1D4D6D8DBDDDFE2E4E7E9EBEEF027
:1004F000F3F5F8FAFDFF0C035200650064006F008D
:10050000780000001403460061006C006200610086
:100510007400650063006800000004030904090218
:100520003B00020100A0FA090400000103010100E0
:100530000921110100012240000705810308000183
:10054000090401000103000000092111010001223A
:100550007B00070582032000011201000200000059
:1005600008444D445200010102000105010902A1A5
:100570000185020901A100050919012908150025B5
:1005800001950875018102050109300931158125A0
:100590007F95027508810609381581257F950175BB
:1005A000088106050C0A38021581257F950175081A
:1005B0008106C0C005010980A101850319012AB780
:1005C00000150126B700950175108100C0050C09C2
:1005D00001A101850419012AA002150126A0029596
:1005E0000175108100C005010906A101050719E088
:1005F00029E7150025019508750181029501750807
:1006000081010507190029FF150026FF00950675D1
:1006100008810005081901290595057501910295C4
:100620000175039101C011241FBECFEFDAE0DEBFD8
:10063000CDBF11E0A0E0B1E0EAEAF2E602C0059029
:100640000D92AE3FB107D9F723E0AEEFB1E001C0A4
:100650001D92AE3AB207E1F70E9434160C94FF30B7
:100660000C9400008430B8F46A30A8F4473098F451
:1006700050E097E0699F400D511D1124FA0196E466
:10068000899FE00DF11D1124EE0FFF1FE455FF4F70
:1006900085919491089581E090E008950E9432033D
:1006A000089581E008950E945103089581E008951E
:1006B0000E94510308950E945803089508950E94CE
:1006C0005E030895A6E0B0E0E8E6F3E00C94AB2FFB
:1006D00049835A839E833091050289819A81311121
:1006E0001AC03E81332399F0222389F00E946909C0
:1006F000182F682F89819A810E94450969817A8122
:10070000812F0E945A102696E3E00C94C72F0E9476
:100710005709182FF3CF0E94690969817A81F1CFB7
:10072000FC01262F408151816281738184819581F2
:100730000E9462030895CF93DF93EC0161E00E9471
:100740009003BE010E945303DF91CF910895CF9390
:10075000DF93EC0160E00E949003BE010E945F0302
:10076000DF91CF91089508950E941A080E94B30363
:100770002FEF84E39CE0215080409040E1F700C0DF
:10078000000008950E94B4030E94562808950E9414
:10079000B4030E94672808950F931F93CF93DF93AC
:1007A0008C0161E00E949003EC01B8010E945B03A0
:1007B000811106C080E0DF91CF911F910F910895C4
:1007C000B801CE010E946C248823A1F3B801CE01A8
:1007D0000E94B621882371F3B801CE010E94DE2366
:1007E000882341F3B801CE010E940021882311F330
:1007F000F8018581882361F0C330FCE7DF07E9F069
:1008000058F4C115ECE7DE07A9F0C130DC47B9F0B8
:10081000C8010E945603CFCFCB358CE7D807A9F08B
:10082000CC35ECE7DE0771F0CA35DC4789F70E946A
:100830009F0DEECF0E94C203BDCF0E94A70D0E9464
:10084000C703B8CF0E94950DE3CF0E94A30DE0CF60
:100850000E946C270E944F0408950E9453040E9436
:1008600071270895089581E008950895CF93DF9347
:10087000D82F0E943304C82F882319F08D2F0E948F
:1008800035048C2FDF91CF9108950895CF93C82F11
:100890000E9432048C2F0E943604CF91089580E08C
:1008A0000E94460408950E9474260E9446040895FA
:1008B000CF930E947426C82F809100028C1779F084
:1008C000C09300020E94FB27609301027093020212
:1008D00080930302909304028C2F0E944604CF91D0
:1008E0000895ADE0B0E0E7E7F4E00C94AC2F488762
:1008F00059876A877B878C879D8791110E94CD0CD1
:100900001F8286E0FE013896DE01119601900D925D
:100910008A95E1F78D8181110DC029813A814B8142
:100920005C816D817E818F810E94000C2D96E2E0BA
:100930000C94C82FCE0101960E949B038111EDCF2C
:10094000F5CFFC012481213021F4808191810E9426
:100950009B090895662329F00E94B8160E948B1700
:1009600008950E941217FACFCF93C82F8823C9F099
:100970008238C9F40E94742681FD13C089E30E9465
:10098000850C0E94060D2FEF87EE93E021508040EA
:100990009040E1F700C0000089E30E948D0C0E94A6
:1009A000060DCF9108958338A1F40E94742680FD2E
:1009B000F8CF83E50E94850C0E94060D2FEF81EE93
:1009C00094E0215080409040E1F700C0000083E5B2
:1009D000E4CF8438A1F40E94742682FDE2CF87E43C
:1009E0000E94850C0E94060D2FEF81EE94E02150AD
:1009F00080409040E1F700C0000087E4CECF8CEF4C
:100A00008C0F813AB8F48C2F0E9423238111C9CF17
:100A10006C2F80910401909105010E94FD2688238E
:100A200029F08C2F0E948D0C0E94060D8C2F0E94A5
:100A3000850CB5CF80E28C0F883048F4C77081E018
:100A400001C0880FCA95EAF70E94B00CA8CFEBE569
:100A5000EC0FE33040F4F0E0E757FE4F808190E088
:100A60000E94A1269ECFE8E5EC0FEB3150F4F0E0B8
:100A7000EE0FFF1FED5AFE4F808191810E94C62626
:100A800090CF83E38C0F833108F08BCF61E08C2F04
:100A90000E94AA0486CF882309F456C0823879F4CC
:100AA0000E94742681FF50C089E30E94850C0E9439
:100AB000060D89E30E948D0C0E94060D089583386F
:100AC00059F40E94742680FF3FC083E50E94850C84
:100AD0000E94060D83E5EECF843859F40E947426F7
:100AE00082FF32C087E40E94850C0E94060D87E4D5
:100AF000E1CF9CEF980F913AE8F290E2980F98308E
:100B000050F4877091E001C0990F8A95EAF7892F18
:100B10000E94B60CD1CF9BE5980F933028F490E05B
:100B200080E00E94A126089598E5980F9B3128F453
:100B300090E080E00E94C626089593E3980F9331D9
:100B400018F460E00E94AA0408951F93CF93DF93E6
:100B5000182FEB010E94B404209739F4812F0E94D2
:100B60004B05DF91CF911F9108958FE99FE0019789
:100B7000F1F700C000002197EFCF70E060E089330B
:100B800011F460E570E00E94A5050895882321F026
:100B90000E94B00C0E94060D0895882321F00E9447
:100BA000B60C0E94060D0895B0E0A0E0EAEDF5E075
:100BB0000C94A52F6C01D62FC72FFC01158106813F
:100BC00002950F700E94A60CE82E8823E9F0E12E12
:100BD0001123D1F08C2F807F803451F080E28D0F73
:100BE0008830F8F0011104C08C2F807E8032C9F06B
:100BF0008091540382FF15C082E00E94690D0E941B
:100C0000A60C91E0E82EE926BC2EB2949FE0B92212
:100C1000FBE0FB15B8F1EB2DF0E0EF5FFE4C0C9420
:100C2000652FE12CF1CF0C2F0F70C07F11F00295D2
:100C3000007F112399F0002359F080E28D0F883056
:100C400010F0D11107C0802F0E94B00C0E94060D39
:100C50008D2F5AC0802F0E94C00CF8CF8D2F0E947C
:100C60004B05002379F080E28D0F883010F0D11110
:100C700004C0802F0E94B60C03C0802F0E94C60CB7
:100C80000E94060DEB2DE850FF0B349720F40E94D4
:100C900074260E944604EE2089F00E94A20C80FD7A
:100CA0000DC0F60115820E949C0C0E94A308C6018B
:100CB0000E94E1070E949C0C0E94B308CDB7DEB7EA
:100CC000E9E00C94C12F2C2F2F70F22EC07FC03280
:100CD00019F0F29480EFF822DD2341F0D130D1F108
:100CE000112309F444C00023F1F0B2CF80915403E2
:100CF00082FD15C0112359F0FF2029F08F2D0E948D
:100D0000B00C0E94060D80E00E94B404BBCF80E0CE
:100D10000E944B05FF2009F4B5CF8F2DABCF1123D7
:100D200069F0011104C08F2D0E94C605ABCF0130C0
:100D300009F0A8CF8F2D0E94E40CA4CF0111A2CFFF
:100D40008F2D0E94CD058F2D0E94F00C8F2D0E94BB
:100D5000D40C98CF112321F0063008F093CFE3CFC5
:100D6000053008F08FCF8F2D0E94CD058BCF00234B
:100D7000D1F3D93349F43FEF87EE93E0315080400F
:100D80009040E1F700C000008D2F0E944B057ACF04
:100D90008C2F86958695837069F0813009F072CF2B
:100DA0008D2F9C2F9370111102C080E090E00E9463
:100DB000C62668CF8D2F9C2F9370111102C080E042
:100DC00090E00E94A1265ECF612F8D2F0E94AA0481
:100DD00059CF8C2F8370A1F5111154CF4D2F42950F
:100DE00046954770440F440F2D2F2F7030E0042E8E
:100DF00002C0220F331F0A94E2F790E080E0D4FF94
:100E000009C08FE090E002C0880F991F4A95E2F771
:100E100080959095C695C695C370822B932BC23052
:100E200049F058F4C13019F00E9473082BCF0E948A
:100E30006A0828CF0E947C0825CF0E94670822CF2D
:100E40008695112311F08C2F8170882309F41ACF15
:100E50004D2F429546954770440F440F2D2F2F700C
:100E600030E0042E02C0220F331F0A94E2F790E014
:100E700080E0D4FF09C08FE090E002C0880F991F86
:100E80004A95E2F780959095C695C695C370822BDA
:100E9000932BC23049F058F4C13019F00E94DE089B
:100EA000F1CE0E94D508EECE0E94E708EBCE0E945C
:100EB0008B08E8CECF70112329F08C2F0E94A30855
:100EC0008D2F32CF8D2F0E94CD058C2F0E94B3081D
:100ED000D9CED23F41F160F4D03FB9F0D13F81F09B
:100EE000112309F446C00111B3CE8C2F8F711FC09E
:100EF000D33F01F1D43FA1F78091540382FD24C078
:100F00008C2F8F71112311F312C0112341F0053082
:100F100008F0B8CE8C2F8F710E94C508B3CE063072
:100F200008F0B0CEF7CF8C2F8F711111CFCF0E9468
:100F3000A308A8CE112329F08C2F8F710E94970847
:100F4000A1CE0E9492089ECE112349F0CF718C2F22
:100F50000E94A30863E08C2F0E944B0D93CE81E08A
:100F60000E94690D023008F48DCE82E00E94690D66
:100F700089CE002359F0D93309F006CFEFEFF7EE11
:100F800023E0E150F0402040E1F7FCCE8C2F8F7140
:100F90009DCF0F931F93CF93DF93EC0168817981ED
:100FA0008D810E94A6098C010E94F0080E946608AB
:100FB000B801CE010E94D405DF91CF911F910F910E
:100FC0000895CF93DF93EC018C81882399F0CE01B3
:100FD0000E94CC03811111C00E94A60C882351F0FD
:100FE0008D81882339F08091540382FF03C082E011
:100FF0000E94690DDF91CF910895CE010E94C9072B
:10100000CE010E94A703F6CF90E080E00E94A126C7
:1010100090E080E00E94C6260E94CD0C0E94060D42
:101020000E94A7170E948B1708950E94950C0E949A
:10103000040808950E94BD0C0E9415080895929519
:101040009F70963091F058F4925F9F70923058F4F0
:10105000803F19F030F4883E30F481E008959A5FC3
:10106000F4CF843FD1F380E00895883EB0F3813F10
:10107000D1F7F3CFFC012481222339F080819181C3
:101080000E949B090E941F08089580E00895A6E031
:10109000B0E0EDE4F8E00C94AC2F2696E2E00C947E
:1010A000C82FA7E0B0E0E7E5F8E00C94AC2F279656
:1010B000E2E00C94C82F08950E945B0808950E94F6
:1010C0005C0890932D0280932C02089508950E944D
:1010D0005F08089520912C0230912D02822B932BD2
:1010E0000E945F08089520912C0230912D028223E6
:1010F00093230E945F08089520912C0230912D02C5
:10110000822793270E945F0808950E945B08089534
:101110000E94850808950E94880890932B0280936E
:101120002A02089590E080E00E948B08089521E053
:1011300030E0A90102C0440F551F8A95E2F7CA01A9
:101140000E948B08089521E030E002C0220F331F77
:101150008A95E2F780912A0290912B02822B932BA1
:101160000E948B08089521E030E002C0220F331F57
:101170008A95E2F72095309580912A0290912B0272
:10118000822393230E948B08089521E030E002C05F
:10119000220F331F8A95E2F780912A0290912B0249
:1011A000822793270E948B08089520912A0230916C
:1011B0002B02822B932B0E948B08089520912A02E8
:1011C00030912B02822393230E948B080895209153
:1011D0002A0230912B02822793270E948B080895C0
:1011E0000895262F277091E001C0990F2A95EAF7FC
:1011F00023E0769567952A95E1F7660F771F660FCE
:10120000771FFA01E60FF71F50E040E0682F70E00B
:101210008191DF0111979B01042E02C0369527951D
:101220000A94E2F7217021952827292328272C9357
:101230004F5F5F4F4430510559F70895A82FA770AD
:1012400023E0969587952A95E1F7880F991F880FD7
:10125000991FFB01E80FF91F50E040E080E0219169
:1012600030E00A2E02C0369527950A94E2F72170E5
:101270003327042E01C0220F0A94EAF7822B4F5F16
:101280005F4F4430510559F70895262F9A3070F476
:10129000873060F4682F70E087E0989F600D711DC3
:1012A000112446E052E0822F0E94F1080895292F70
:1012B0009A3068F4873058F490E066E072E037E0E6
:1012C000239F800D911D11240E941E09089580E026
:1012D0000895B0E0A0E0EFE6F9E00C94A52F7C01C2
:1012E00000912A0210912B0280912C0290912D02E4
:1012F000082B192BCFE0D0E0CC24C394D12CBC2EEA
:10130000C6010C2E02C0880F991F0A94E2F78023B1
:101310009123892B49F4219790F7B12C8B2DCDB7D0
:10132000DEB7E9E00C94C12FB7018C2F0E94661044
:10133000019789F3F3CFCF93DF93EC010E94690902
:10134000BE010E946610DF91CF9108951F93CF9345
:10135000DF93EB0190910502992339F0CB010E94B4
:101360009B09DF91CF911F910895882369F0CB01EC
:101370000E946909182F682FCE010E944509BE01FD
:10138000812F0E946610EDCFCB010E945709182FC4
:10139000F6CF1F93CF93DF93C0912E0217E0809179
:1013A0002F028C1304C0DF91CF911F910895D0E0DC
:1013B0001C9FF0011D9FF00D1124E05DFD4F208169
:1013C0003181428153816481758186810E945108F7
:1013D0002196C770E4CF2091680230916902409154
:1013E0006A0250916B0260916C0270916D02809163
:1013F0006E020E9451080895CF93DF9380916E0290
:10140000807F09F04DC080916D02882309F448C0A7
:10141000E0912E0250912F02C0916902D091680292
:1014200060916A0270916B0247E05E17C9F18E2FDE
:1014300090E0E49FF0011124E05DFD4F2481222320
:1014400091F1489FF001499FF00D1124DF01A05D4B
:10145000BD4F11962C9111972C1325C02C912D1353
:1014600022C015962C91159721111DC012962D9111
:101470003C91261B370B283C3105A8F480916E0265
:101480008F70806180936E02EA5CFD4F80818F7067
:101490008061808388E692E00E94E1070E94C9098A
:1014A000DF91CF910895FC013196E770BECF482FB0
:1014B00020912E0290912F0257E0291302C080E064
:1014C000089530E0529FF001539FF00D1124E05D2C
:1014D000FD4F8181681306C08081481303C0858158
:1014E0008111EECF2F5F3F4F2770E7CFA4E1B0E02F
:1014F000ECE7FAE00C94A22F8C0186E0F801DE0103
:101500001F9601900D928A95E1F7F8018481E5809C
:1015100098E6A92E92E0B92E90916C0291111FC00D
:101520008823D1F0EE20A9F0C8010E943A08F82ED5
:10153000882379F087E0F801D50101900D928A9512
:10154000E1F7C5010E94A1040E94FC090E94EB0979
:101550005FC0C8010E94E107FF24F39459C0C08016
:10156000D18082809380F0906D0220916A02309148
:101570006B02A401421B530BFF2009F4F9C0483C45
:10158000510508F0A7C0882309F442C09091690270
:1015900080916E02282F207F09F05CC09D1116C03B
:1015A00090916802C91212C0E1104EC08F70806124
:1015B00080936E020E94EB0988E692E00E94E107A8
:1015C00080916E02F8018683F12C22C0E1103CC0AC
:1015D0006D2D8C2D0E94570A6D2D8C2D0E94570A5F
:1015E000E82E8111F1CFCF86D88A8F8598890E9405
:1015F0009B09292F22952F70243078F49F70223078
:10160000A8F09923B9F0F8019681907F99F4FE2C07
:101610008F2D6496ECE00C94BE2F2A5F2F70223041
:1016200068F0C8010E94E107EF2CF1CF992311F077
:10163000882369F3805E883050F3F3CF803F38F31E
:10164000815F833070F7E3CF80916E028160809379
:101650006E02BACF9D1113C090916802C9120FC0DB
:10166000E1100DC08683C8010E94E10787E0F80100
:10167000A8E6B2E001900D928A95E1F767CFC80124
:101680000E943A08882309F464CFEE2009F461CF60
:1016900080916E02803288F0209168023091690258
:1016A000398728879B868A8690916C029C871D8645
:1016B0008E87CE0108960E94E10787E0F801A8E630
:1016C000B2E001900D928A95E1F70E94FC090E9418
:1016D000EB0942CF90916E02292F207FA1F4682D53
:1016E0009A8A898AA6017A899E2D0E94470888E6EF
:1016F00092E00E94E10787E0F50111928A95E9F7EF
:101700000E94EB0961CF882309F482CF809169029E
:101710008D1110C080916802C8120CC0E1100AC07F
:101720009683C8010E94E10787E0F50111928A952E
:10173000E9F76ECFC8010E943A08882309F409CF5F
:10174000EE2009F406CF80916E02803208F4B5CF06
:1017500020916802309169023A8329839C828B82AE
:1017600090916C029D831E828F83CE010196A3CF40
:10177000483C5105B8F5882309F4EECEFE2CEE2046
:1017800009F4E7CE809169028D111EC08091680234
:10179000C8121AC080916E0280FD0DC0982F907FF4
:1017A00051F08683903F09F45ECF982F907F905F31
:1017B0008F70892B57CF87E0F801A8E6B2E001903F
:1017C0000D928A95E1F724CFC8010E943A08811151
:1017D00074CF80916E02816080936E02C8010E9476
:1017E000E10716CF682D9A8A898AA6017A899E2DEB
:1017F0000E94470887E0F50111928A95E9F7A6CE85
:10180000AEE0B0E0E6E0FCE00C94AB2F288739872F
:101810004A875B876C877D878E87CE0108960E94FA
:10182000760A8823B1F06C85662341F028853985D6
:101830004A855B857D858E850E94510817E08091E1
:101840002E0290912F0289133DC02E96E3E00C9456
:10185000C72F87E0FE013896DE01119601900D92A8
:101860008A95E1F78C85882349F320912F0230E097
:10187000C90101968770992740912E0248171906D1
:1018800099F097E0929FD001939FB00D1124A05D35
:10189000BD4FFE01319601900D929A95E1F780932C
:1018A0002F020E94C909CACF0E941A0810922F0263
:1018B00010922E0287E0E8E6F2E0DF011D928A95A1
:1018C000E9F7BCCF819FC0011124805D9D4F0E942C
:1018D000760A882309F4B9CFE0912E021E9FF00109
:1018E0001124E05DFD4F208131814281538164816B
:1018F000758186810E94510880912E0290E00196A8
:101900008770992780932E029ACF682F80910401C7
:10191000909105010E9433270895682F809104015A
:10192000909105010E9436270895809104019091BD
:1019300005010E9439270895809177028695869542
:101940008695089580917702877008959091770227
:10195000977081E009F480E00895809183020895F2
:1019600090918302892B80938302089580959091B2
:10197000830298239093830208951092830208951E
:1019800090918202892B8093820208958095909194
:101990008202982390938202089510928202089501
:1019A00008950E94D00C089590917802292F282341
:1019B00031F080958923809378020E94D10C08959C
:1019C00008950E94E00C089590917902292F282310
:1019D000281729F0982B909379020E94E10C089522
:1019E00090917902292F282331F0809589238093C3
:1019F00079020E94E10C089580917902882329F0F0
:101A00001092790280E00E94E10C0895CF93DF9359
:101A1000E0910401F0910501809183028083E091BF
:101A20000401F0910501808190918202892B8083CD
:101A300090917902992381F0E0910401F0910501E0
:101A40008081892B808380910401909105010E94FF
:101A5000EB2681110E94FC0CC0910401D09105017C
:101A600048E050E06FE672E0CE010E947230892BB0
:101A700059F088E0FE01AFE6B2E001900D928A9540
:101A8000E1F7CE010E948826DF91CF910895089555
:101A90000E94470D08959091540392FF11C098E061
:101AA000899F90011124622B609377020E94A30802
:101AB000809177028695869586950E94480D0895B7
:101AC0000E94A30808951092770280E00E94480DBA
:101AD0000895909177028095892380937702282F2B
:101AE000277069F4891759F09091540392FF07C049
:101AF0008695869586950E94B3080E94630D089589
:101B00009091540392FB222720F9281769F080FB5B
:101B100092F99093540380915303909154030E943F
:101B2000C80D82E00E94690D08958091540382FBE4
:101B3000882780F991E089270E94800D089581E02F
:101B40000E94800D089580E00E94800D08956FEF3F
:101B50007FEF90E080E00E94CA30089590E080E03E
:101B60000E94963021E0863E9E4F09F020E0822FB1
:101B7000089582E090E00E948830089583E090E02C
:101B80000E948830089584E090E00E949630089585
:101B9000BC0184E090E00E94CA300895AB01BC0112
:101BA0008FE090E00E94BE300895AB01BC0183E15C
:101BB00090E00E94BE30089560E070E0CB010E948A
:101BC000D50D089560E070E0CB010E94CE0D0E941B
:101BD000DC0D0895A8E0B0E0E0EFFDE00C94AC2F40
:101BE00066EE7EEF90E080E00E94CA3060E082E026
:101BF00090E00E94AC3060E083E090E00E94AC3066
:101C000010922D0210922C0260E074E184E090E0CA
:101C10000E94CA3060E086E090E00E94AC306FEF36
:101C200087E090E00E94AC3040E050E0BA0188E0EC
:101C300090E00E94BE3060E084E290E00E94AC3010
:101C400060E087E190E00E94AC3060E08CE090E0E2
:101C50000E94AC3060E08DE090E00E94AC301982D0
:101C60001A821B821C821D821E821F82188648E0F7
:101C700050E068E170E0CE0101960E949C3040E0A7
:101C800050E0BA0180E290E00E94BE300E94E20D76
:101C90002896E2E00C94C82F0E94EA0D08958EE089
:101CA00090E00E94883091E0811101C090E0892F7E
:101CB0000895682F8EE090E00E94AC300895A6E071
:101CC000B0E0E5E6FEE00C94AA2F0E94EF278C011D
:101CD00080918402909185028017910781F019828A
:101CE0001A820E94EF27682F49815A81792F80E05C
:101CF00090E00E947104109385020093840226965E
:101D0000E4E00C94C62F0E947611609394027093C5
:101D1000950280939602909397026093900270933D
:101D200091028093920290939302089508950895EA
:101D30000E94970E089508950E949B0E089581E0D9
:101D400008958BE991E10E946A260E94960E0E94F6
:101D5000980E08950E947D130895089508950E9495
:101D6000AD0E0E94AE0E08950E949E110E94450481
:101D700008950E94E6270E9450110E94BD130E9400
:101D8000C4120E94B40E0E949E210E949B1F0E94BA
:101D9000CD130E949C0E0895A6E0B0E0E2EDFEE0B7
:101DA0000C94A32F0E949F0E811110C00E945F0E01
:101DB0000E947D130E94A3130E9418200E94C9173D
:101DC0000E9458042696EBE00C94BF2F0E94E71265
:101DD00086E8A82E82E0B82E750110E0F701019187
:101DE0007F01812F0E94C4111F5F1A3009F441C086
:101DF0000817A1F38091980281FD0E94CA110E94E8
:101E0000AA0EC82E10E099249394812F0E94C41129
:101E1000082FF50181915F01081729F1D02ED826EE
:101E2000F12CEE24E3948D2D8E21A9F0CC2099F095
:101E3000F9821A830E94EF279C838B839D8291E015
:101E4000802F8E2109F490E049815A816B817C8139
:101E50008D810E947104F394EE0CF7E0FF12E3CF42
:101E6000F501319700831F5F1A3079F60E94830EC7
:101E70009FCF0813BFCF9ACF1F93CF93DF930E94BA
:101E80006B10EC01C11580E5D807F0F5C11580E4B1
:101E9000D80708F09CC0C03ED10520F5CD3CD10547
:101EA00008F082C0C83AD10578F4C53AD10508F0E7
:101EB00073C0C130D10519F1209709F1C430D105A3
:101EC000F0F4D0E0C0E01BC0C33CD105D0F7C85A45
:101ED000D0E0CC0FDD1FC457DE4F0990D881C02D54
:101EE000D4640DC0C11580E2D80708F0D1C0C11577
:101EF00081E0D80708F05AC0C83ED10510F7CE01DE
:101F0000DF91CF911F910895C03682E5D80718F56B
:101F1000C03482E5D80708F06BC0C03282E5D8072C
:101F200008F05FC0C11582E5D80708F497C02C2FD0
:101F30002695269580E2289F900111248C2F83708E
:101F4000C1E0D0E002C0CC0FDD1F8A95E2F7C22BC2
:101F5000D32BDD68D4CFC03A82E5D80760F4C0380F
:101F600082E5D80708F459C0CF71D0E0DC2FCC2728
:101F7000C46FD06AC4CFC03C82E5D80708F462C001
:101F8000C03E82E5D80708F09CCFDC2FCC27CC27B9
:101F9000DF71C06FD06AB3CFC55AD0E0CE53DE4FE9
:101FA000C881D0E0D064ABCFD065A9CF8D2F0E947F
:101FB0000D11182FCE0199270E946B10C12FD0E070
:101FC000DC2FCC27CC27DF71C82BD92B98CFCE01A3
:101FD00099270E946B10CC27DF70C82BD92BD06AB1
:101FE0008ECFCF71D0E0DC2FCC27C16FD06A87CFE6
:101FF0002C2F26952695277080E2289F900111248A
:102000008C2F8370C1E0D0E002C0CC0FDD1F8A9519
:10201000E2F7C22BD32BDC6872CF2C2F26952695A6
:10202000277080E2289F900111248C2F8370C1E0DB
:10203000D0E002C0CC0FDD1F8A95E2F7C22BD32B74
:10204000DA685DCF8C2F8F710E940D11C82FD0E000
:10205000DC2FCC27CC27DF71D06251CF8C2F8F7132
:102060000E940D1155E0D695C7955A95E1F7CF70AE
:10207000D0E0DC2FCC27282F30E084FF05C044E0DF
:10208000220F331F4A95E1F7C22BD32BD06937CFEC
:102090008D2F8F710E940D11182FCE0199270E944C
:1020A0006B10C12FD0E0DC2FCC27CC27DF71C82BE1
:1020B000D92BD2CF462F7A3030F4673020F4672FF7
:1020C0000E944E03089590E080E008950E945A1007
:1020D0000E943C0F089582389105B9F1B0F4813324
:1020E000910509F47DC048F48932910509F46DC069
:1020F0008A32910509F47BC008958533910509F46E
:102100005FC08933910509F10895833E9105D9F1A6
:1021100038F4803E910529F1823E910579F10895C8
:10212000863E9105D9F1873E910509F43EC0843E73
:10213000910541F52091540321FF24C08091530360
:1021400084FD19C087EE90E0089520915303237019
:1021500009F05AC02091540323FF14C089E290E093
:1021600008952091530320FD38C03091540330FF6F
:1021700009C024FF43C090E080E0089520915303FC
:1021800022FDF7CF08952091530322FD3AC03091EC
:10219000540330FD39C024FFF5CFEDCF2091530318
:1021A00023FFF0CF24FDE7CFCDCF2091530323FDB4
:1021B0002EC03091540331FFEECF84EE90E00895AD
:1021C0002091530325FFDECFC9CF2091530325FD76
:1021D00021C02091540323FFD5CF89E390E0D2CFD3
:1021E0002091530326FFCECF8AE290E008952091FC
:1021F000530326FFC7CF81E390E0089583EE90E07C
:10220000089582EE90E0089580EE90E0089586EEC5
:1022100090E0089585E390E008959091530392FF34
:1022200006C0282F28712830F9F4877F846093FF37
:1022300006C0282F28712831F1F4877E846120910F
:10224000540320FF06C0382F38713830D9F4877F07
:10225000816021FF06C0282F28712831D1F4877EA4
:10226000816194FD877E0895282F24712430F9F62A
:102270008B7F8860DCCF282F2471243101F78B7E7F
:102280008861DDCF382F3171313019F78E7F88604A
:10229000E0CF282F2171213121F78E7E8861E1CF97
:1022A00010924F0310925003109251031092520358
:1022B0000895CF92DF92EF92FF926B017C010E9412
:1022C0007D1381110EC00E94FB27C61AD70AE80AA7
:1022D000F90AC0924F03D0925003E0925103F0925A
:1022E0005203FF90EF90DF90CF9008950F931F93CC
:1022F0000E947D13882329F00E94FB271F910F91D4
:1023000008950E94FB2700914F03109150032091E4
:10231000510330915203600F711F821F931FEECF44
:102320000E947D13882319F00E94EF2708950E94D0
:102330007611CB01089580E0089508950E94AE0DB6
:10234000811102C00E944C0E0E94B90D8093980228
:102350000E94C30D90935403809353030E949D11D8
:102360000E94BE0D90E00E94670880912A02909121
:102370002B020E948808089508950E94BC110895B8
:1023800008950E94C0110895E82FF0E0E05AFC4F34
:1023900080810895089580EA8A95F1F7089500C034
:1023A00008950E94CB11089508950E94D4110895B4
:1023B000A5E0B0E0EEEDF1E10C94A82F0E947D13B2
:1023C000F82E60916A03882309F440C085E0E82E66
:1023D0008E010F5F1F4FF8018E2D11928A95E9F73C
:1023E000862F90E0B801805A9C4F0E94DD1388230D
:1023F000B9F08091550390E045E050E0B801805A73
:102400009C4F0E94723021E020939902892B91F415
:10241000F12C0E94C1118F2D2596E6E00C94C42F5B
:10242000809199028823A1F3F8011192EA94E9F7C7
:1024300010929902A0915503B0E0A05ABC4F85E0DC
:10244000F80101900D928A95E1F7E3CF70E0605AB0
:102450007C4F8091550390E0805A9C4F0E946414F9
:102460000E94D511D8CFF894E82FE295EF70F0E0F4
:1024700031A1282F2F7081E090E001C0880F2A95AC
:10248000EAF7982F9095932391A392A1892B82A389
:1024900078940895CF93DF93CCECD1E089918F3F6E
:1024A00011F00E94331281E0C13DD807B9F7C5ECA5
:1024B000D1E089918F3F11F00E94331281E0CC3C32
:1024C000D807B9F7DF91CF910895B0E0A0E0EBE62F
:1024D000F2E10C94A62FEC01D62E062F10E0C801D5
:1024E00084539E4F7C01FC0180818F3F09F445C0DD
:1024F000F894E82FE295EF70F0E091A18F7021E061
:1025000030E001C0220F8A95EAF7892F822B81A340
:1025100082A12095282322A378940E94CF11E5EC74
:10252000F1E04CEC51E031E0C12C21912F3F51F111
:10253000A22FA295AF70B0E090968C9190E02F7092
:1025400002C0959587952A95E2F780FD1BC0832FE1
:10255000C82A330F4E175F0741F7F70180818F3F7D
:1025600011F00E94331261E0C11001C060E08D2DB6
:102570000E94D111C00FD11FC882CDB7DEB7E8E0ED
:102580000C94C22F80E0E4CF809106018091060177
:1025900095E0811190E090936A0385E0891B809318
:1025A00055030E944A128AE0E0E6F3E0DF01982F2B
:1025B0001D929A95E9F7E6E5F3E0DF011D928A9511
:1025C000E9F785E00E9425130E94BD110895AAE055
:1025D000B0E0EDEEF2E10C94A92F8E010F5F1F4FDA
:1025E0008AE0F80111928A95E9F7F12C6F2DC80164
:1025F0000E946512F394F5E0FF12F8CF4AE050E034
:10260000B80186E593E00E94723021E0009709F45A
:1026100020E0892B41F08AE0F801A6E5B3E00190C3
:102620000D928A95E1F760916A0370E0605A7C4FE1
:1026300045E086E593E00E942613182F0E94D811EA
:10264000812B2A96E5E00C94C52F0895CF92DF9256
:10265000EF92FF920F931F93CF936C017B01042F96
:10266000222349F081E080939C020E94EF279093FF
:102670009B0280939A02C0919C02C1110AC0C0E0E3
:102680008C2FCF911F910F91FF90EF90DF90CF9003
:10269000089580919A0290919B020E9407280597C5
:1026A00070F310E0A801B601C7010E947230892BB7
:1026B00041F0A801B601C7010E947F3010929C0230
:1026C000DFCFC0E0FBCF0E94FB276093A102709395
:1026D000A2028093A3029093A40208958093A00283
:1026E00008958091A5028A3010F01092A002809186
:1026F000A00208950E944F0E0895CF93DF9380911A
:102700009F02811117C0C8ECD0E00E94FB2E8111FE
:102710000EC08FE39CE90197F1F700C000002197FC
:10272000A1F782E080939F020E94F62E03C081E011
:1027300080939F0281E090919F02913009F080E0A8
:10274000DF91CF9108958091A002811115C00E9460
:102750007D13811111C06091A1027091A20280913C
:10276000A3029091A4020E941628693B7B40810538
:10277000910510F00E94672808950E94AE0D811106
:1027800002C00E944C0E0E947A13809306010E94A0
:102790007D1381110E94131408950E947D138111ED
:1027A00004C00E9416140E946313089581E0909162
:1027B000A5029A3008F080E008950F931F93CF93FD
:1027C000DF93EC018B018091A5028A30B8F4B80147
:1027D000CE010E946114C82F811122C08091A502F0
:1027E0008F3FB9F40E94EF2790939E0280939D0241
:1027F0008C2FDF91CF911F910F91089580919D02B1
:1028000090919E020E940728843F914000F7C0E00B
:10281000EFCF8F5F8093A5028A3020F7C1E0E8CF29
:102820001092A502E5CF0E94082508950E940B256D
:102830000895B0E0A0E0EFE1F4E10C94A72F790156
:10284000C82F880FDD0B41155105A9F0FE0193E05B
:10285000EE0FFF1F9A95E1F7E95FFE4F81819281AC
:102860008A559D4F208130E04217530708F49A01A2
:10287000A9010E947F30CE010E94F425D82E882322
:10288000D1F001151105B9F083E0CC0FDD1F8A9559
:10289000E1F7FE01E95FFE4F438150E004171507A1
:1028A00008F4A801C95FDE4F6C817D816A557D4FB8
:1028B000C7010E947F308D2DCDB7DEB7E7E00C94C5
:1028C000C32F0E94AE1508950E94D7150895A1E068
:1028D000B0E0EDE6F4E10C94AA2F81E089830E9438
:1028E000711381110FC010E000E030E020E041E002
:1028F00050E0BE016F5F7F4F84E00E94191489830E
:102900000E946E1389812196E4E00C94C62FA4E006
:10291000B0E0EDE8F4E10C94AA2F6091C902709147
:10292000CA028091CB029091CC020E94162811E03D
:10293000643671058105910518F10E9476116E5F6C
:102940007F4F8F4F9F4F69837A838B839C8310E0E7
:1029500000E030E020E044E050E0BE016F5F7F4FD8
:1029600082E00E941914182F882351F00E94FB273F
:102970006093C9027093CA028093CB029093CC02F9
:10298000812F2496E4E00C94C62FB0E0A0E0EBEC9D
:10299000F4E10C94A42F7C015B016A010E94D61320
:1029A00001E010E0882311F00AE010E0C1E0D0E07F
:1029B000B501C701F6010995811104C021960C17D4
:1029C0001D072CF4CDB7DEB7EAE00C94C02FCC9FE6
:1029D0009001CD9F300D300D112490E080E045E353
:1029E0004A95F1F70000019682179307C1F7E0CFEF
:1029F000ABE0B0E0EEEFF4E10C94AA2FCE0101962B
:102A00000E94BE1E1B856091CD027091CE02809106
:102A1000CF029091D0020E9416286436710581057C
:102A2000910510F41123C1F010E000E030E020E047
:102A30004BE050E0BE016F5F7F4F83E00E941914AE
:102A4000882369F00E94FB276093CD027093CE0229
:102A50008093CF029093D0020E94BB1E81E02B9600
:102A6000E4E00C94C62FA6E0B0E0E9E3F5E10C94B5
:102A7000A42F7B01C090D101D090D20101E010E0E1
:102A80009E012A5F3F4F50E040E070E060E080E050
:102A90000E941914182F882309F448C056018FEF9B
:102AA000A81AB80A6091C5027091C6028091C70247
:102AB0009091C8020E94162864367105810591051F
:102AC00068F105E010E09E012F5F3F4F50E040E0CD
:102AD00070E060E081E00E941914D82E65E070E09B
:102AE000C5010E949F2111E09E81981310E01D21D5
:102AF00041F10E94FB276093C5027093C602809348
:102B0000C7029093C80285E0FE013196A0ECB2E0C6
:102B100001900D928A95E1F711E013C065E070E035
:102B2000C5010E949F219E818913CBCF85E0F601CC
:102B30003196DE01119601900D928A95E1F71111FF
:102B4000E2CF85E0E0ECF2E0D70101900D928A95AA
:102B5000E1F7812F2696EAE00C94C02F0F931F9384
:102B6000CF93DF93EC018B0143E355E10E94C51441
:102B7000811106C080E0DF91CF911F910F910895E0
:102B800047E854E1B801CE010E94C514882391F3AF
:102B900048EF54E1B801CE010E94C514882351F3D7
:102BA00047E654E1B801CE010E94C514E4CFABE082
:102BB000B0E0EDEDF5E10C94A62F0091D10110915C
:102BC000D201C801019625E0FB01DC0101900D92C4
:102BD0002A95E1F765E070E00E949F21F80180836B
:102BE0006681778180859185C090BC02D090BD02BE
:102BF000E090BE02F090BF026C157D058E059F052A
:102C000051F06093BC027093BD028093BE0290931A
:102C1000BF020E9459118BE0F8013A96DE0111962D
:102C200001900D928A95E1F7F801148A8B8588232B
:102C300029F060E0CE0101960E94E31FF80185892A
:102C40000E946E132B96E8E00C94C22F0E94CC29B0
:102C50000E94B90E0E94D92908950E94DE290E947F
:102C6000CC0E0E94F82908950E9488270E94B2295C
:102C70000E94A10E0E9426160E942D160E94AF0EE1
:102C8000FBCF8091D70280FF0DC06091340170E0CE
:102C9000660F771F6038710570F56115710569F170
:102CA000862F089581FF07C06091340184E0689FFA
:102CB000B0011124EFCF6091340182FD0AC08091F0
:102CC000D6028823A9F02091330160913401821744
:102CD00010F088E0ECCF869FC001112433E0880F0C
:102CE000991F3A95E1F7622F70E00E942F2FD2CF03
:102CF00068E070E0D5CF8FE7089581E00895809176
:102D0000D70280FF0CC06091300170E07595679527
:102D1000759567956115710549F1862F089581FFB5
:102D200006C06091300170E075956795F3CF6091B2
:102D3000300182FD0BC09091D5029923A1F06091E2
:102D40002F0180913001961738F0682F70E06038BD
:102D5000710500F38FE70895899FC001112470E089
:102D60000E942F2FF4CF61E070E0D7CF81E008956B
:102D70008D3C31F40E94411681958093DB020895C9
:102D80008E3C19F40E944116F8CF8F3C31F40E941A
:102D9000411681958093DA020895803D19F40E94CE
:102DA0004116F8CF893D29F40E947F168093DC02FA
:102DB00008958A3D21F40E947F168195F7CF8B3DBF
:102DC00031F40E947F1681958093DD0208958C3D39
:102DD00019F40E947F16F8CF9FE2980F983070F494
:102DE000815D990B21E030E001C0220F8A95EAF75E
:102DF0008091D902822B8093D90208958D3D31F4C0
:102E00008091D70281608093D70208958E3D21F48E
:102E10008091D7028260F7CF8F3DB9F78091D702BA
:102E20008460F1CF4091DA028D3C59F48091DB024D
:102E300087FF0DC01092DB0241110BC01092D60229
:102E400008C08E3C81F48091DB0218169CF3442369
:102E500081F08091DC029091DD02892B09F05AC04B
:102E60001092D50208958F3C49F447FFF0CF10929D
:102E7000DA028091DB028111ECCFE0CF803D19F4C2
:102E80001416ACF3E4CF9091DC02893D29F41916B5
:102E9000F4F61092DC02DBCF8A3D19F497FFD7CF0E
:102EA000F8CF9091DD028B3D29F497FFD0CF10929F
:102EB000DD02CDCF8C3D19F41916CCF3C8CF9FE2BB
:102EC000980F983090F4815D990B21E030E0B901C2
:102ED00002C0660F771F8A95E2F7CB01809590912B
:102EE000D90289238093D902B2CF8D3D31F48091EC
:102EF000D7028E7F8093D702AACF8E3D21F4809196
:102F0000D7028D7FF7CF8F3D09F0A1CF8091D702F7
:102F10008B7FF0CF08950E94EF279C019091DA02F9
:102F20008091DB02982B21F03093D4022093D302BE
:102F30009091DC028091DD02982B21F03093D20237
:102F40002093D10288ED92E00E949326089586E0B6
:102F5000E8EDF2E0DF011D928A95E9F71092D602C2
:102F60001092D5021092D7020895FC01828181113E
:102F70000EC0838181110BC08481811108C091E052
:102F80008581811101C090E0892F8170089581E0D1
:102F9000FCCFA6E0B0E0EFECF7E10C94AB2F86E0BD
:102FA000E8EDF2E0DE01119601900D928A95E1F7CD
:102FB0001092DA021092DB021092DC021092DD0213
:102FC0008B819C81892B89F08091D3029091D402CE
:102FD0000E940728AC019091D6029923C9F18091F3
:102FE00035018417150608F440C08D819E81892B18
:102FF00091F08091D1029091D2020E940728AC01F9
:103000009091D502992309F471C080913101841700
:10301000150608F479C0BE016F5F7F4F88ED92E01E
:103020000E944027811105C088ED92E00E94B517EB
:1030300081110E948B1786E0FE013196A8EDB2E067
:1030400001900D928A95E1F72696E3E00C94C72F44
:10305000209136018AE0289F90011124241735071A
:1030600020F69F5F9093D60202C09F3FD1F71B814D
:10307000112359F00E9441169FEF11160CF491E0B4
:10308000899F802D11248093DA021C81112359F02D
:103090000E9441169FEF11160CF491E0899F802D3C
:1030A00011248093DB023091DA02332309F49DCF9F
:1030B0002091DB02222309F498CF45EB3403C001B1
:1030C0001124992359F09093DA0245EB24039001DF
:1030D0001124332339F03093DB0287CF81E08093D2
:1030E000DA02F3CF81E08093DB027FCF20913201BF
:1030F0008AE0289F900111242417350708F08BCF10
:103100009F5F9093D50202C09F3FD1F71D8111238D
:1031100059F00E947F169FEF11160CF491E0899FE1
:10312000802D11248093DC021E81112359F00E940E
:103130007F169FEF11160CF491E0899F802D1124CA
:103140008093DD023091DC02332309F464CF2091B7
:10315000DD02222309F45FCF45EB3403C0011124C3
:10316000992359F09093DC0245EB2403900111243C
:10317000332339F03093DD024ECF81E08093DC02BF
:10318000F3CF81E08093DD0246CFEF92FF920F9361
:103190001F93CF93DF93EB01E82FD1110EC044238F
:1031A00021F0F0E0EA50FC4FE4916E2F7E2F8E2F3D
:1031B000CDB7DEB7E6E00C94C42F0D2F10E0282F1A
:1031C00030E0442329F02A503C4FF901249130E0AB
:1031D000F6E0CF9FC0011124EFEFF0E0BF010E94A5
:1031E0001B2FAB018C2F90E0880F991FA5E5A49FA2
:1031F000B001A59F700D1124861B970B982F990F76
:10320000980FBF01601B710B629FD001639FB00DCF
:10321000729FB00D11248B2F9D9FB0011124672F39
:103220007727EF01C61BD70BBE01629FE001639FAA
:10323000D00D729FD00D11247F01E91AF108E09E94
:10324000B001E19E700DF09E700D1124672F77275D
:10325000E61BF70BE29F8001E39F100DF29F100D1C
:103260001124E12F722F4230510599F048F4411595
:10327000510569F04130510581F0EB2F8D2F07C0CA
:103280004430510569F080F046305105B1F76E2F9A
:103290008FCFE22F7B2F812FFACFE22F7D2FF7CF19
:1032A000EB2F822F712FF3CF7B2F822FED2FEFCFBC
:1032B00041E00E94C518089508950E945819089584
:1032C000CF93DF93762FE901682F842F0E945D1939
:1032D000798368838A83DF91CF91089580916B030E
:1032E000982F9E7F29F48170826080936B030895EC
:1032F0008635E8F381708465F8CFB0E0A0E0E3E8BC
:10330000F9E10C94A62F88E090E00E9490306B01C8
:103310007C0184E290E00E948830282F30E040E079
:1033200050E060E070E080E090E000E20E94D32F87
:10333000B22FA32FF42FE52FD62FC72F9701860189
:10334000BC29A12BFE295E2F532B2B2F3A2F4F2F59
:103350006D2F7C2FCDB7DEB7E8E00C94C22FB0E024
:10336000A0E0E5EBF9E10C94A22F49015A016B01B1
:103370007C010E946E198401A4016A2D7B2D88E0D6
:1033800090E00E94BE3094014A2D5B2DB601C7012A
:1033900000E20E94EE2F622F84E290E00E94AC30A7
:1033A000CDB7DEB7ECE00C94BE2FEBE6F3E083E0A4
:1033B000808311828FEF828383831482A1E3B3E041
:1033C00012968C911297836012968C93758123E0EC
:1033D00030E04FEF5FEF60E0868197810E94AF1988
:1033E000089580916B0380FF02C08695089580E068
:1033F000089590916F03933018F49F5F90936F033B
:10340000882391F020916B0330916C0340916D0300
:1034100050916E0360916F037091700380917103FE
:10342000909172030E94AF19089581E00E94F919EA
:10343000089590916F03992319F0915090936F0321
:10344000882391F020916B0330916C0340916D03C0
:1034500050916E0360916F037091700380917103BE
:10346000909172030E94AF19089581E00E94191A89
:10347000089570E00E947221089560913B0180914F
:103480006B0380FF0BC080913A0123E0829FC00153
:1034900011248D589C4F0E94391A089580913C0147
:1034A00090913D0123E0829FF0011124ED58FC4FE3
:1034B000891748F71182108212828F5F3396F8CFF6
:1034C00090916B0390FF0EC090913C0120913D01C3
:1034D00033E0939FF0011124ED58FC4F921718F040
:1034E0000E943D1A08958183608342839F5F3396D3
:1034F000F5CFA3E0B0E0EFE7FAE10C94AC2F9091A8
:103500006B0390FF0AC09E012F5F3F4F0E9460191E
:103510004B8169818A810E94601A2396E2E00C94B3
:10352000C82FCF93DF93EC01EC81F0E0EF50FD4F1B
:103530004491EBE6F3E0628181810E94791A8C81EB
:103540008F5F8C83DF91CF910895CF93DF93EC0150
:10355000EBE6F3E0438162818C810E94791A8C81D1
:103560008F5F8C83DF91CF910895A3E0B0E0EBEB08
:10357000FAE10C94AA2F8C018091DE0281110AC01D
:103580009E012F5F3F4F4FEF6FEF0E9460198A81BE
:103590008093DE02F8016481613069F08091DE027F
:1035A00040E0662361F040E0623011F44091DE02B9
:1035B00080E060E004C06091DE0240E080E00E94B4
:1035C000601AF801848190E0019663E070E00E9447
:1035D0002F2F84832396E4E00C94C62FA3E0B0E061
:1035E000E4EFFAE10C94A52F082FE62EF42EC22E5C
:1035F00090916B0390FF40C020916C03281308C08A
:1036000080916D03861304C080916E03841729F0A6
:1036100080913303826080933303E92FE695AE2FC8
:10362000B0E0AD52BE4F8C91809331039E7F9230BB
:1036300039F59E012F5F3F4F4F2D6E2D802F0E9439
:1036400060194B8169818A810E94601A00936C0322
:10365000E0926D03F0926E03CC2071F020916B0329
:1036600060916F0370917003302FA70180917103F7
:10367000909172030E94AF192396E9E00C94C12F38
:10368000823019F4F0906E03E1CF8630A1F18930D9
:1036900091F18931D9F6E9516E2F6170B62EE69518
:1036A000F0E0EF50FC4F1491D12C60913E01D61602
:1036B00018F00E943D1ACACFD19EC001112470E0BB
:1036C0000E941B2F802FB11014C0860F20913C0147
:1036D000622F6D0D7727771F9B01220F331F260F57
:1036E000371F2D583C4F4F2D6E2D0E946019D394DB
:1036F000DCCF861BEBCF022FA9CFEBE6F3E0918165
:10370000282F4381628188E0890F0E94EE1A089574
:1037100081E00E947D1B0895EBE6F3E09181282F64
:103720004381628188EF890F0E94EE1A089581E03B
:103730000E948C1B0895EBE6F3E0628128E0620FA3
:1037400008F46FEF282F438181810E94EE1A0895BB
:1037500081E00E949B1B0895EBE6F3E0628128E084
:10376000621B08F460E0282F438181810E94EE1AD9
:10377000089581E00E94AC1B0895EBE6F3E04381DD
:1037800028E0420F08F44FEF282F628181810E94C8
:10379000EE1A089581E00E94BD1B0895EBE6F3E068
:1037A000438128E0421B08F440E0282F6281818198
:1037B0000E94EE1A089581E00E94CE1B089520E039
:1037C0000E94EE1A0895EF92FF921F93CF93DF931A
:1037D000EC0110E0EE24EA94F12C60913E01161702
:1037E00070F00E943D1A9A818C8190FF27C08F5FF4
:1037F0008C83DF91CF911F91FF90EF9008952091DE
:103800003C01422F410F5527551FCA019A01220F33
:10381000331F280F391F2D583C4F70E0C7010E94FD
:103820002F2F962F8C8140916E0360916D03199F0D
:10383000800D11240E9460191F5FCFCF8150D8CF17
:10384000B0E0A0E0E6E2FCE10C94A22FEC018A815A
:10385000BB24BA9480FD02C0BB24B3948C81811137
:103860000AC081E0B81222C080913E01815080934D
:10387000E00281E08C83A12C4EE0942E80913E01E9
:10388000A816B8F00E943D1A8091E00291E0B912AA
:1038900059C0811152C080913E0181508093E00255
:1038A0001C82CDB7DEB7ECE00C94BE2F1092E00284
:1038B000E0CF00913C01CA2CD12C0C0D1D2D111D07
:1038C000C801880F991F080F191F0D581C4FF801C8
:1038D00011821082128234E0E32EF12C812C80912F
:1038E000E002880D8F301CF1692D0E940D2F892F69
:1038F000082E000C990BC816D90691F480916E031E
:103900008E9DA0018F9D500D11245595479555957D
:103910004795980160916D0380916C030E94601936
:103920008B0CF1E0EF1AF108D1F6A394A7CF87FF33
:10393000DFCF90913E01890FDBCF81508093E00271
:10394000BC82AFCF90E0019660913E0170E00E9492
:103950002F2F8093E0028C83A4CFEF92FF920F93DE
:103960001F93CF93DF93EC018C81811109C081E01B
:103970008C831092DF0292E090933901809338019A
:1039800080913C0190913D0123E0829FF001112440
:10399000ED58FC4F891758F110E003E060913E01AB
:1039A000161758F10E943D1A809138012091DF02CC
:1039B000280F2093DF0290913901980F90933901DD
:1039C000191654F4022E000C330B40913E01415065
:1039D000550B2417350734F08195809338018130D9
:1039E00009F41C82CDB7DEB7E6E00C94C42F118237
:1039F000108212828F5F3396CDCFE12EF12C70E0D2
:103A0000C7010E942F2F20913C01820F482F50E0C8
:103A10002091DF02022E000C330BE216F306BCF0FD
:103A200020913901022E000C330B2E153F057CF03E
:103A3000809F900111242D583C4F40916E0360915E
:103A40006D0380916C030E9460191F5FA7CFFA017C
:103A5000EE0FFF1FE40FF51FED58FC4F118210828F
:103A60001282F3CFB0E0A0E0E8E3FDE10C94A22FD6
:103A7000EC014C81042F10E09801D8010E94732FB3
:103A80009B01AC010E94892F4B015C01E0E2F0E058
:103A9000E01BF10BA5E5B0E0AC019B010E94892F72
:103AA0006B017C019F01DF010E946B2F9B01AC0128
:103AB0000E94942F9B01AC01280D391D4A1D5B1DEE
:103AC000C701B6010E94432FF22E822F90E039E207
:103AD0003F1520F143E0249F90011124359527954F
:103AE000122F109500E085E5E82EEF1880913E0139
:103AF000081718F10E943D1A9C8181E0992319F062
:103B0000903219F48FEF8093370180913701890F3C
:103B10008C83CDB7DEB7ECE00C94BE2F25E530E00A
:103B2000B901681B790B9B01220F331F260F371F2A
:103B300037FFD4CF2F5F3F4FD1CF8E2D01FD8F2D7B
:103B400020913C01622F600F7727771F9B01220F86
:103B5000331F260F371F2D583C4F412F60916D03A7
:103B60000E9460190F5FC2CF0F931F93CF93DF9313
:103B7000EC0110E000E090913E019017110609F071
:103B80006CF40E943D1A8C8190E001968170992717
:103B90008C83DF91CF911F910F91089520913C016B
:103BA000A801420F511D9A01220F331F240F351F08
:103BB0002D583C4F4C8160916D0380916C0396951C
:103BC0009017110651F04CF0442349F040916E03D8
:103BD0000E9460190F5F1F4FCECF4423B9F340E01E
:103BE000F7CFB0E0A0E0E7EFFDE10C949E2FFC01E1
:103BF0006280448081E08483E1EFF2E07490E0E74A
:103C0000F3E0E491C0916E03C695C158D0E0CC0FAB
:103C1000DD1FCD2FDD27812C75E0972EAA24AA94D5
:103C2000B12C55245A94E719EE2EF12C80913E01C7
:103C3000881638F00E943D1ACDB7DEB7E0E10C944B
:103C4000BA2FC82CD12C82E0861568F09C9CF0011C
:103C50009D9CF00D1124EC51FD4F80916C038083ED
:103C600080916D038183411023C09C9CF0019D9C39
:103C7000F00D1124EC51FD4F1382128220913C0172
:103C8000C601820F911D9C01220F331F280F391F7F
:103C90002D583C4F9C9CF0019D9CF00D1124EC5143
:103CA000FD4F4281618180810E9460198394BECF63
:103CB0009C9C80019D9C100D11240C511D4FF801FE
:103CC00083818823F1F081508383859DC001112475
:103CD000648170E00E941B2FFB01FF27EF50FD4F16
:103CE0008491E82FE719E59DC0011124B7010E94D6
:103CF0001B2F80916E03689FB0011124F80172831D
:103D0000BDCF0E945530B5010E942F2F8C179D0703
:103D10000CF0B4CFF2E0F61598F40E945530B501DE
:103D20000E942F2FF80180830E94553020916D034F
:103D30002695622F70E00E942F2F280FF801218313
:103D40009C9CF0019D9CF00D1124EC51FD4F1282C2
:103D500080916E03893C58F088EC9C9CF0019D9CFE
:103D6000F00D1124EC51FD4F8483838387CF843180
:103D7000A0F784E1F2CF10923303089528E0EBE638
:103D8000F3E0DC0101900D922A95E1F720913103D7
:103D90003091320340913303FC0120873187428701
:103DA0000895E1E3F3E011828281846082830895C3
:103DB000EBE6F3E080818E7F80830E94D11EE1E3F9
:103DC000F3E08281816082830E943D1A0895EBE6D0
:103DD000F3E020812E7F20833181428153816481F1
:103DE0007581868197810E94AF190E94D11EE1E3FF
:103DF000F3E08281816082830E943D1A0895609180
:103E00006B03669570E04BE050E08FE391E00E9419
:103E10006530892B19F481E0809332030E94901160
:103E200090932B0380932A038091330384608093C3
:103E30003303089590916B0390FF38C09170811106
:103E400036C0926090936B038091330381608093BE
:103E50003303662391F020916B0330916C03409102
:103E60006D0350916E0360916F03709170038091A8
:103E70007103909172030E94AF1960916B03669574
:103E800070E04BE050E08FE391E00E946530892BB9
:103E9000A9F00E94D11E81E080932D0340916E0312
:103EA00060916D0380916C030E94DF1B08958B323B
:103EB00010F09465C7CF880F982BC4CF0E94FF1EC7
:103EC000EACF682F90916B03969581E0890F8B3232
:103ED00008F081E00E941A1F089581E00E94611F8E
:103EE0000895682F90916B0396958FEF890F09F4D1
:103EF0008AE20E941A1F089581E00E94711F0895AE
:103F000061E00E941A1F0895EBE6F3E08081816072
:103F1000808386950E94801F089580916B0380FFA7
:103F200003C00E94E71E08950E94841F089560E068
:103F30000E941A1F089580913003811143C00E948E
:103F4000AE0D811104C00E944C0E0E94D5190E9432
:103F50007D1920936B0330936C0340936D03509352
:103F60006E0360936F03709370038093710390935B
:103F70007203809133038360809333032E7FA1F417
:103F80000E94D5190E947D1920936B0330936C0316
:103F900040936D0350936E0360936F0370937003AF
:103FA00080937103909372030E946E190E94D11E38
:103FB00080916B0380FF03C086950E94971F81E06C
:103FC0008093300308951F93CF93DF93EC01162F56
:103FD0008A8580FF0CC0888180FF24C080916B039C
:103FE000816080936B03888186950E941A1F8A8561
:103FF00081FF06C0212F4B816A8189810E94EE1AC0
:104000008A8582FF05C08985882379F00E94FF1E7A
:104010008A8583FF03C081E080932D03DF91CF91D8
:104020001F9108950E94D81EE2CF0E94D11EF0CFAA
:10403000EF92FF920F931F93CF93DF938091320300
:10404000882309F463C080913103E0916B03E69506
:10405000E81BE0932C03823009F05DC0F0E0E351EF
:10406000FD4FE491CE2FD0E001E91AE180912D03BC
:10407000882361F010922D030E94901190932B03DE
:1040800080932A0310922F0310922E030E94901106
:10409000E0912A03F0912B039C012E1B3F0B2F3F35
:1040A0003F47A0F52091E3022223B1F01092E302F2
:1040B0002091E1023091E202821B930B8F3F9F47D8
:1040C00058F4205D3A483093E2022093E102809157
:1040D0003303886080933303E0902E03F0902F0326
:1040E000EC0FFD1FF0932B03E0932A038AE293E089
:1040F000F801099580912E0390912F03892B31F4BB
:10410000E114F10419F081E08093E302CDB7DEB74A
:10411000E6E00C94C42F863049F4F0E0E651FD4F00
:10412000E491CE2FD0E005EA1AE1A0CF893051F416
:10413000E695F0E0E951FD4FE491CE2FD0E003EE9B
:104140001BE194CF8F3051F4E695F0E0EC51FD4F38
:10415000E491CE2FD0E000E21CE188CF853149F414
:10416000F0E0EF51FD4FE491CE2FD0E00DEA1CE1DD
:104170007DCFC8E2D0E002E31DE1883109F476CFBB
:10418000833239F4EFEDF2E0C591D49105EB1AE1F9
:104190006DCFC4EFD1E004EB1DE1843209F466CFAA
:1041A000C0EDD7E00CE519E1853209F05FCF8E2F25
:1041B00063E00E94012FE92FF0E0E452FD4FE4910B
:1041C000CE2FD0E001EF1DE151CFFA01811101C0E6
:1041D000FB0109950895CF93DF93C82FD62F0E9436
:1041E000F1198C1748F00E94F1198D1728F40E94DC
:1041F0006D1FDF91CF9108958C2F0E94801FF9CF02
:104200001F93CF93DF93EC01FB011581111110C0B7
:104210000E94AD0C8272FE01E052F847E531F105D3
:1042200008F05EC0E35FFE4C0C94652F0E948D1F6A
:10423000812FDF91CF911F9108954CE75FE16DE6EB
:104240007FE10E94E520F4CF4DE65FE16CE77FE17E
:10425000F8CF47E95BE168E87BE1F3CF48E85BE151
:1042600067E97BE1EECF49EB5BE168EA7BE1E9CF0F
:1042700048EA5BE169EB7BE1E4CF4BED5BE16AECA3
:104280007BE1DFCF4AEC5BE16BED7BE1DACF45E32D
:104290005AE165E17AE1D5CF45E15AE165E37AE19A
:1042A000D0CF81E00E94801FC3CF65E082E00E94F2
:1042B000EB20BECF68E086E0FACF6EE089E0F7CF72
:1042C00064E18FE0F4CF67E185E1F1CF88E1EACFE7
:1042D00062E289E1ECCF83E2E5CF6AE285E2E7CFF3
:1042E00011E0A6CF539A4BB1477F5BB15860EFB74F
:1042F000F8949B01220F331F260F371F280F391FF9
:104300002817390741F4EFBF8FE594E00197F1F7E3
:1043100000C000000895DC016D91CD0178E05BB92B
:10432000000000C067FF4BB9660F000000C000C06E
:1043300000C04BB900C07A9591F7E2CF0895FC0117
:10434000680F791F8FEF91E36E177F0709F40895C7
:104350002191822728E030E087FF06C0880F892757
:1043600021503109C9F7F0CF880FFACFCF93DF93EF
:10437000EC01FB018581882309F4D2C09E013057EE
:104380002332310508F0B2C00E94C30D909354034C
:1043900080935303FE01E150F047E232F10520F42F
:1043A000EE5DFE4C0C94652F8091530381608093E9
:1043B000530393C0809154038860809354038DC04D
:1043C000809153038260F3CF809153038460EFCFD9
:1043D000809153038860EBCF809154038160EDCFCF
:1043E000809154038260E9CF809153038061DFCFD5
:1043F000809153038062DBCF809153038064D7CFD9
:104400000E941A08809153038068D1CF8091530392
:104410008C60CDCF809154038360CFCF80915303C4
:104420008E7FC5CF80915403877FC7CF8091530380
:104430008D7FBDCF809153038B7FB9CF8091530384
:10444000877FB5CF809154038E7FB7CF809154037F
:104450008D7FB3CF809153038F7EA9CF809153037B
:104460008F7DA5CF809153038F7BA1CF0E941A0827
:10447000809153038F779BCF80915303837F97CF96
:10448000809154038C7F99CF8091530382FB9927AD
:1044900090F921E0922790FB82F990FB83F987CF76
:1044A00080915403982F909591708E7F892B90FB6B
:1044B00081F983CF90915303892F8F7B96FF80647E
:1044C00076CF0E941A0890915303892F97FB87F9A2
:1044D00080586DCF81E00E94590E809153039091D6
:1044E00054030E94C80D0E941A0880E0DF91CF910A
:1044F000089580E0F0CF90915303892F8F7E94FF31
:10450000806155CF90915303892F8E7F90FF8160FA
:104510004ECF90915403892F877F93FF88604DCFB2
:1045200081E0E4CF8B3109F465C040F58B3071F048
:1045300078F4863009F447C020F4853059F180E0E2
:104540000895873009F448C08830C9F781E008959C
:10455000803109F45DC068F48E3089F7909198023B
:10456000892F8B7F92FF84608093980282FD4CC0DC
:10457000EDCF863159F3893149F3E1CF8A3201F128
:1045800060F48732B1F020F48E31C8F28D514CC006
:104590008932A9F60E94C203D9CF833440F48A330A
:1045A00008F041C0853329F0883381F2C8CF8334C5
:1045B00031F681E090E00E9467080E941A08C6CF99
:1045C0000E944C0EC3CF80919802807F8093980206
:1045D00081E080933703089590919802892F8E7F10
:1045E00090FF81608093980280FDB0CF817F80939F
:1045F0009802ACCF90919802892F8D7F91FF8260B5
:104600008093980281FFA2CF809198028160EFCFC2
:1046100090919802892F877F93FF886080939802FA
:1046200083FDF2CF93CF895321E030E0A90102C08E
:10463000440F551F8A95E2F7CA01BDCF80E0089567
:104640000E941E230895CF93C82F80913703813095
:10465000B9F0882331F08230A1F11092370380E065
:104660000DC00E94AD0C8232D1F78C2F0E941E2308
:1046700081111BC08C2F0E9492228170CF910895CE
:104680000E94AD0C823289F38C2F0E94202381116D
:104690000AC0C43199F060F4CB3029F0C03169F719
:1046A00082E08093370381E0E8CF81E090E0E5CFBE
:1046B000C93221F0C833B9F380E0DFCF109237035D
:1046C000FBCFC93209F440C0F0F4C431E9F1A8F4D9
:1046D00081E0C73099F68093360184E180933501FB
:1046E0008AE0809334018EE18093330188E08093E7
:1046F000300188E280932F0104C082EE8C0F8A3053
:1047000070F181E0BBCFC03509F450C0B8F48AE045
:10471000CF34B9F7E0913403F0913503309789F342
:104720002081082E000C990B820F911D8F3F91055F
:1047300009F00CF43FC08FEF8083E3CFC135C1F1A6
:1047400081E0C23539F39ACF809136038823C9F2CC
:10475000109236031092350310923403D2CFCD510C
:10476000C0933603C330C9F048F4C13099F085E3F3
:1047700091E0C23051F010923603C3CFC53099F0AA
:1047800078F08FE291E0C630B1F7909335038093D3
:104790003403B7CF86E391E0F8CF84E391E0F5CF1F
:1047A00083E391E0F2CF80E391E0EFCF86EFB2CFE9
:1047B0008FEFB0CF97FFC0CF1082A3CFCF93DF93FF
:1047C000EB0186319C4711F50E94AD0C9D81992328
:1047D00099F08A7A91E009F490E09093380381117E
:1047E00009C089E20E94850C0E94060D80E0DF91DD
:1047F000CF91089585E3F6CF80913803811104C0ED
:1048000089E20E948D0CF0CF85E3FBCF81E0EFCFF2
:104810000F931F93CF93DF93C42FD22FFC01858179
:104820008823C9F040933B030E94EF2790933A03FB
:104830008093390380E28C0F883040F4C77081E0A8
:1048400001C0880FCA95EAF70E94C605DF91CF9193
:104850001F910F91089510913B03141332C0809162
:10486000390390913A030E940728883C910548F546
:10487000C0E2CD0F1D17B9F080E2810F883040F4FF
:10488000177081E001C0880F1A95EAF70E94CD05E4
:10489000C83048F481E09D2F977001C0880F9A9529
:1048A000EAF70E94C605802F0E94BD05C83070F649
:1048B000D77081E001C0880FDA95EAF70E94CD0534
:1048C000C5CF80E28C0F883008F6C77081E001C048
:1048D000880FCA95EAF7F2CF0F93DB0188519C4706
:1048E00087309105A0F5FC01EC5BFE4C0C94652F24
:1048F00006E221EE41EE6AE17CE7CD010E94082448
:1049000080E00F91089507E225EE45EE6BE17CE72C
:10491000F4CF06E221EE40EE68E17CE7EECF07E25D
:1049200025EE44EE69E17CE7E8CF06E221EE42EEB7
:104930006CE17CE7E2CF07E225EE46EE6DE17CE735
:10494000DCCF08E221E045EE6EE17CE7D6CF15969C
:104950008C91882319F010923B03D3CF81E0D1CF03
:104960008EE1489B02C08150E1F7489BFECF08953D
:10497000589880E28A95F1F7589A0895FC013BE037
:104980003A95F1F798E020E080E031E040E14A9587
:10499000F1F7880F489B02C08160232742E04A95C7
:1049A000F1F7000040E14A95F1F7915079F790E175
:1049B0009A95F1F799B132E03A95F1F7000040E1AC
:1049C0004A95F1F7917092272081920F9083089574
:1049D000A1E0B0E0EEEEF4E20C94A82F19828C0175
:1049E0007C01E60EF11C0E151F0541F481E0998152
:1049F000911180E02196E6E00C94C42F0E94B0242F
:104A0000CE0101960E94BE24F80181938F01EBCF65
:104A1000509A589A08955098589AE89AE9E6F0E022
:104A200080818C7F808308956150770B91E001C075
:104A3000990F6A95EAF720E031E0911108C022232E
:104A400091F0589A80E28A95F1F758980895492F85
:104A5000482339F0589A232740E24A95F1F7969572
:104A6000ECCF5898F9CF5898EDCFFF920F931F9342
:104A7000CF93DF93EC018C01060F111DC017D107F6
:104A800029F4CDB7DEB7E5E00C94C52FF9900E946C
:104A9000B82468E08F2D0E941425F0CF1F920F924A
:104AA0000FB60F9211240F931F932F933F934F93A1
:104AB0005F936F937F938F939F93AF93BF93EF9386
:104AC000FF93CF93DF930F92CDB7DEB719820E9489
:104AD000B024CE0101960E94BE24082F06950695AB
:104AE0000695282F22952570902F9570290F922FCB
:104AF000937026952695920F982797708981982B09
:104B000009F05CC0063008F059C080E18A95F1F7E1
:104B1000589A509A82E08A95F1F700C0589888E038
:104B2000089F80011124D801A95FBE4F1696ED9110
:104B3000FC9117973097A9F06091D1017091D20143
:104B400014962D913C911597260F371F11968D9134
:104B50009C911297680F791F13964C9113978C9123
:104B60000995F801E95FFE4F6381662351F02091BA
:104B7000D1013091D20184819581820F931F0E94CF
:104B800035250E94B82480E18A95F1F7589850980D
:104B9000589A80E18A95F1F7F801E95FFE4F60814C
:104BA000662351F02091D1013091D201818192810F
:104BB000820F931F0E94E8240E94B0240F90DF917F
:104BC000CF91FF91EF91BF91AF919F918F917F9185
:104BD0006F915F914F913F912F911F910F910F9086
:104BE0000FBE0F901F9018950F931F93CF93DF93D5
:104BF000EC0106970CF04CC0F894509A589885E058
:104C00008A95F1F700009C2F969595708C2F8570F2
:104C1000980F892F83709695969523E0CC0FDD1F12
:104C20002A95E1F7980F8E01092B0E94B82400C045
:104C300068E0802F0E94142580E18A95F1F7509852
:104C4000589A489B1EC087E090E048991CC0FE011E
:104C5000E95FFE4F63816623F9F02091D101309125
:104C6000D20184819581820F931F0E94E8248111D3
:104C700013C0509A589A7894DF91CF911F910F9159
:104C8000089500C0DECF019729F4509A589A78947D
:104C900080E0F2CF00C0D9CF0E94B02480E28A9594
:104CA000F1F75898509A80E18A95F1F7C95FDE4F85
:104CB0006881662351F02091D1013091D201898120
:104CC0009A81820F931F0E9435250E94B824789400
:104CD00081E0D2CF9093FF018093FE0108959093DD
:104CE00042038093410308950E947D13811103C004
:104CF00080913C030895E0914103F0914203309785
:104D000029F00190F081E02D0995089580E0089543
:104D1000E0914103F0914203309721F00280F3814A
:104D2000E02D09950895E0914103F09142033097F9
:104D300039F022E0DC012C930480F581E02D099507
:104D40000895A3E0B0E0E7EAF6E20C94AC2F2091DE
:104D50003F033091400328173907A1F09093400397
:104D600080933F03E0914103F0914203309751F06B
:104D700023E029839B838A830680F781E02DCE017F
:104D8000019609952396E2E00C94C82FA3E0B0E0C9
:104D9000ECECF6E20C94AC2F20913D0330913E03F5
:104DA00028173907A1F090933E0380933D03E091CB
:104DB0004103F0914203309751F024E029839B8313
:104DC0008A830680F781E02DCE010196099523960E
:104DD000E2E00C94C82F9C012E5F3F4FAC01485F6E
:104DE0005F4F80E02417350709F40895F901919188
:104DF0009F019923B9F38F5FF5CF662349F0FC013A
:104E0000329608962191261729F0E817F907D1F76D
:104E100080E0089581E008959C01FC0132969FEFA7
:104E200080E04191461751F09F3F19F4411101C0B4
:104E3000982F8F5F8630A9F79F3F09F40895290FB7
:104E4000311D97FD3A95F90162830895FC01329670
:104E500008962191261303C0DF0111971C92E817D1
:104E6000F907B9F708950E940C2708950E94262794
:104E70000895029626E0FC0111922A95E9F708951B
:104E800046E050E00E94723021E0892B09F420E0D6
:104E9000822F089508950E944A270895811106C01F
:104EA00081E0809343030E944B27089582E0F9CF6D
:104EB00083E0809343030E944B2708950E944E276E
:104EC000089581E0809343030E944B2708950E9438
:104ED00061270895089508950E946B270895089505
:104EE00008950E946A270895CF930E946F270E9419
:104EF000E7120E947027C0E08C2F0E94C41181111C
:104F000005C0CF5FCA30C1F7CF91089581E0FCCFD3
:104F100085B7806885BF85B7806885BF08951F9273
:104F20001FB61F9211248F939F93AF93BF938091CD
:104F30004403811113C080919D0390919E03A09121
:104F40009F03B091A0034196A11DB11D80939D03C5
:104F500090939E03A0939F03B093A003BF91AF9142
:104F60009F918F911F901FBE1F9018958091A50350
:104F7000843031F10E9428041092440388E190E0CB
:104F800020E40FB6F894A895809360000FBE20939C
:104F9000600083B7817F846083BF83B7816083BFF4
:104FA0007894889583B78E7F83BF0FB6F894A895C1
:104FB00080916000886180936000109260000FBE55
:104FC00008950E941A080E942D04089582E084BD6D
:104FD00093E095BD9AEF97BD80936E0008952FB72B
:104FE000F89480919D0390919E03A0919F03B091AE
:104FF000A0032FBF08952FB7F89460919D0370917F
:105000009E0380919F039091A0032FBF08959C0160
:105010004FB7F89480919D0390919E03A0919F03B8
:10502000B091A0034FBF821B930B0895CF92DF92E4
:10503000EF92FF922FB7F894C0909D03D0909E03FB
:10504000E0909F03F090A0032FBFA7019601261BBD
:10505000370B480B590BCA01B901FF90EF90DF9055
:10506000CF90089578941F921FB61F9211248F93AA
:105070009F93AF93BF9380919D0390919E03A091C6
:105080009F03B091A0030196A11DB11D80939D03C4
:1050900090939E03A0939F03B093A003BF91AF9101
:1050A0009F918F911F901FBE1F90189587E797E7DC
:1050B000909301088093000888E19AE00FB6F89475
:1050C000A895809360000FBE90936000FFCF88E1A9
:1050D0009AE00FB6F894A895809360000FBE909365
:1050E0006000FFCF80914D0308959B01BA0190911C
:1050F000A5039430E9F48F708093E9009FEF8091CD
:10510000E800915085FD06C085ED8A95F1F7000015
:105110009111F5CF8091E80085FF0AC050E040E092
:10512000C9010E946F2A8091E8008E778093E80081
:10513000089543E050E0BC0182E00E947528089584
:1051400046E050E0BC0182E00E9475280895CF93AC
:10515000DF93EC0148E050E0BC0181E00E9475283B
:1051600088E0FE01A5E4B3E001900D928A95E1F795
:10517000DF91CF9108958091A403811109C00E940D
:10518000FF2B0E945C2C8091E20084608093E200FF
:1051900008951092A40308950E94612708956091D4
:1051A000A10381E0611101C080E00E9458270895A9
:1051B0009091A50381E0943009F080E06091A10313
:1051C0000E945E27089542E061EC81E00E947B2B03
:1051D00042E261EC82E00E947B2B9091A50381E08A
:1051E000943009F080E06091A1030E944E27089559
:1051F0008091A703833009F461C030F48130D1F18C
:10520000823009F49EC008958A3009F48AC08B3038
:1052100009F46FC0893009F050C08091A603813233
:1052200009F04BC08091AA039091AB03029708F05C
:1052300044C08091E800877F8093E8008091E80077
:1052400082FF37C09091F3008091F200029731F411
:105250008091F100813011F0863021F48091F100CD
:1052600080934D038091E8008B778093E8000E9443
:10527000AF2B23C08091A603813AF9F48091E80016
:10528000877F8093E8008091AA039091AB03892BDC
:1052900061F468E085E493E070E00E94BE2A8091AA
:1052A000E8008B778093E800089560E090E080E06C
:1052B000F3CF8091A5038111C1CF08958091A603FA
:1052C000813AD9F78091AA039091AB03892BA9F772
:1052D0008091E800877F8093E8008091E80080FF5C
:1052E000FCCF809152018093F1008091E8008E778D
:1052F000BCCF8091A603813201F78091AA039091DF
:10530000AB03892BD1F68091E800877F8093E8007A
:105310000E94AF2B8091A803809352010E941A082B
:1053200008958091A603813241F68091E800877F3D
:105330008093E8000E94AF2B8091A90380934E03D5
:1053400008958091A603813A09F0B7CF8091E800D3
:10535000877F8093E8008091E80080FFFCCF8091F8
:105360004E03C1CF84B7877F84BF0FB6F894A8954A
:1053700080916000886180936000109260000FBE91
:1053800080E890E00FB6F8948093610090936100FC
:105390000FBE0E94672708950E94FF2B0E945C2C7D
:1053A000E2EEF0E080818460808378940E94DB2EBE
:1053B00008958AE491E00E946F2608958091A503E4
:1053C000853031F48091A503853019F00E94E127E2
:1053D00008950E94B6278091A303882399F30E9421
:1053E0007427882379F30E94592A0E941A08EACF69
:1053F00008959A014091AC035091AD030E94012A97
:105400000895492F55274330510519F168F441306B
:10541000510509F444C04230510509F445C090E0FB
:1054200080E050E040E025C04132510549F1423270
:105430005105A9F780E490E046EE55E0611571054D
:10544000C1F08BE790E04BE655E06130710589F0E3
:10545000E6CF99278130910581F0009729F00297D6
:10546000F1F6E6EFF4E002C0EAE1F5E0849190E0C5
:10547000AF01F901518340830895E4E0F5E0F6CFF0
:1054800089E090E040E355E06115710591F389E012
:1054900090E049E455E06130710559F3C0CF82E1F5
:1054A00090E049E555E0E5CF8BE390E04EE155E033
:1054B000E0CF80E189BD82E189BD09B400FEFDCF66
:1054C0008091D8008F7D8093D8008091E000826029
:1054D0008093E0008091E00081FDFCCF0895AF92C1
:1054E000BF92CF92DF92FF920F931F93CF93DF93E0
:1054F0006C01EB018A010E94CE2BF82E811123C092
:105500000115110539F0F80180819181C81BD90B73
:10551000C80ED91EB12CA12C2097A9F08091E800CB
:1055200085FD22C08091E8008E778093E800011508
:105530001105A1F0F80180819181A80EB91EB182F8
:10554000A08285E0F82E8F2DDF91CF911F910F91D2
:10555000FF90DF90CF90BF90AF9008950E94CE2B28
:105560008823D1F2F82EEFCFF60181916F0180935D
:10557000F1002197FFEFAF1ABF0ACECFFC01809157
:10558000AC039091AD0386179707A0F061157105E4
:1055900029F49091E8009E779093E80090E06115DF
:1055A000710551F4911108C08091E80082FF34C068
:1055B00080E00895BC01F2CF8091A5038823C1F15A
:1055C0008530C1F18091E80083FD30C08091E80012
:1055D00082FDEACF8091E80080FFE1CF8091F30067
:1055E0002091F200382F6115710519F0283031052E
:1055F00058F091E02830310509F090E02091E80062
:105600002E772093E800CBCF81918093F1006150F9
:1056100071092F5F3F4FE7CF8091A503882341F0A9
:10562000853041F08091E80083FFBECF81E008958E
:1056300082E0089583E00895FC018091AC0390918D
:10564000AD0386179707A0F06115710529F48091C5
:10565000E8008E778093E80090E06115710551F4C1
:10566000911108C08091E80082FF35C080E0089564
:10567000BC01F2CF8091A5038823C9F18530C9F11F
:105680008091E80083FD31C08091E80082FDEACF7F
:105690008091E80080FFE1CF8091F3002091F2003B
:1056A000382F6115710519F02830310558F091E057
:1056B0002830310509F090E08091E8008E778093E2
:1056C000E800CBCF84918093F1003196615071094D
:1056D0002F5F3F4FE6CF8091A503882341F08530AF
:1056E00041F08091E80083FFBDCF81E0089582E022
:1056F000089583E00895982F973028F08F70809355
:10570000E90081E008959093E900242F762F50E07E
:10571000981731F07091EC002091ED005091F0005D
:1057200021FD02C09F5FE8CF3091EB003E7F3093B8
:10573000EB003091ED003D7F3093ED003091EB00B8
:1057400031603093EB007093EC002093ED005093A8
:10575000F0002091EE0027FDE5CF80E008958091D4
:10576000A60387FF13C08091E80082FF06C08091E6
:10577000E8008B778093E80004C08091A503811135
:10578000F2CF08958091A5038823D9F38091E80092
:1057900080FFF8CF8091E8008E77ECCF2091E40075
:1057A0003091E50095E6A9012091EC00822F8170EF
:1057B00020FF06C08091E80080FF06C080E00895C9
:1057C0002091E80022FD1AC08091A503882389F06A
:1057D000853089F08091EB0085FD0FC02091E400B9
:1057E0003091E50042175307F9F29150E1F684E059
:1057F000089582E0089583E0089581E008950E946D
:105800006E2C0E94762CE0EEF0E080818160808337
:10581000E8EDF0E080818F77808319BCA7EDB0E0E0
:105820008C918E7F8C9380818F7E80831092A403D5
:1058300008950F931F93CF93DF930E946E2C0E94C5
:10584000762CC8EDD0E088818F7788838881806846
:10585000888388818F7D888319BC1092A50310925C
:10586000A1031092A3031092A20300EE10E0F8012E
:1058700080818B7F808388818160888342E060E0C3
:1058800080E00E947B2BE1EEF0E080818E7F8083C0
:10589000E2EEF0E080818160808380818860808397
:1058A000F80180818E7F8083888180618883DF9189
:1058B000CF911F910F910895E8EDF0E080818F7EE8
:1058C0008083E7EDF0E080818160808384E082BFA7
:1058D00081E08093A4030E94192C0895E8EDF0E084
:1058E00080818E7F80831092E20008951092DA000A
:1058F0001092E10008951F920F920FB60F9211249B
:105900002F933F934F935F936F937F938F939F93C7
:10591000AF93BF93EF93FF938091E10082FF0BC0A1
:105920008091E20082FF07C08091E1008B7F80932D
:10593000E1000E94DA2E8091DA0080FF19C0809188
:10594000D80080FF15C08091DA008E7F8093DA0046
:105950008091D90080FF96C080E189BD82E189BD38
:1059600009B400FEFDCF81E08093A5030E94BB280F
:105970008091E10080FF19C08091E20080FF15C096
:105980008091E2008E7F8093E2008091E20080614E
:105990008093E2008091D80080628093D80019BC87
:1059A00085E08093A5030E94CF288091E10084FFC9
:1059B0002BC08091E20084FF27C080E189BD82E195
:1059C00089BD89B5982F917080FFFBCF8091D80059
:1059D0008F7D8093D8008091E1008F7E8093E100DD
:1059E0008091E2008F7E8093E2008091E2008160EE
:1059F0008093E2008091A103882309F449C084E0E8
:105A00008093A5030E94D8288091E10083FF29C0DC
:105A10008091E20083FF25C08091E100877F809321
:105A2000E10082E08093A5031092A1038091E10040
:105A30008E7F8093E1008091E2008E7F8093E20070
:105A40008091E20080618093E20042E060E080E0CB
:105A50000E947B2B8091F00088608093F0000E9470
:105A6000CC28FF91EF91BF91AF919F918F917F9142
:105A70006F915F914F913F912F910F900FBE0F90BB
:105A80001F90189519BC1092A5030E94C92870CFC9
:105A90008091E30087FD93E09093A503B3CF1F921D
:105AA0000F920FB60F9211242F933F934F935F9352
:105AB0006F937F938F939F93AF93BF93CF93DF9316
:105AC000EF93FF93D091E900DF708091EC00C82F35
:105AD000C17080FDC0E81092E9008091F000877FDE
